{
  "abi": [
    {
      "anonymous": false,
      "inputs": [
        {
          "indexed": true,
          "internalType": "address",
          "name": "owner",
          "type": "address"
        },
        {
          "indexed": true,
          "internalType": "address",
          "name": "operator",
          "type": "address"
        },
        {
          "indexed": false,
          "internalType": "bool",
          "name": "approved",
          "type": "bool"
        }
      ],
      "name": "ApprovalForAll",
      "type": "event"
    },
    {
      "anonymous": false,
      "inputs": [
        {
          "indexed": true,
          "internalType": "address",
          "name": "to",
          "type": "address"
        },
        {
          "indexed": false,
          "internalType": "uint256",
          "name": "id",
          "type": "uint256"
        },
        {
          "indexed": false,
          "internalType": "uint256",
          "name": "token0amount",
          "type": "uint256"
        },
        {
          "indexed": false,
          "internalType": "uint256",
          "name": "token1amount",
          "type": "uint256"
        }
      ],
      "name": "LiquidityAdded",
      "type": "event"
    },
    {
      "anonymous": false,
      "inputs": [
        {
          "indexed": true,
          "internalType": "address",
          "name": "from",
          "type": "address"
        },
        {
          "indexed": false,
          "internalType": "uint256",
          "name": "id",
          "type": "uint256"
        },
        {
          "indexed": false,
          "internalType": "uint256",
          "name": "amount0out",
          "type": "uint256"
        },
        {
          "indexed": false,
          "internalType": "uint256",
          "name": "amount1out",
          "type": "uint256"
        }
      ],
      "name": "LiquidityRemoved",
      "type": "event"
    },
    {
      "anonymous": false,
      "inputs": [
        {
          "indexed": true,
          "internalType": "address",
          "name": "to",
          "type": "address"
        },
        {
          "indexed": false,
          "internalType": "uint256",
          "name": "id",
          "type": "uint256"
        },
        {
          "indexed": true,
          "internalType": "contract ERC20",
          "name": "token0",
          "type": "address"
        },
        {
          "indexed": true,
          "internalType": "contract ERC20",
          "name": "token1",
          "type": "address"
        }
      ],
      "name": "PairCreated",
      "type": "event"
    },
    {
      "anonymous": false,
      "inputs": [
        {
          "indexed": true,
          "internalType": "address",
          "name": "to",
          "type": "address"
        },
        {
          "indexed": false,
          "internalType": "uint256",
          "name": "id",
          "type": "uint256"
        },
        {
          "indexed": true,
          "internalType": "contract ERC20",
          "name": "tokenIn",
          "type": "address"
        },
        {
          "indexed": false,
          "internalType": "uint256",
          "name": "amountIn",
          "type": "uint256"
        },
        {
          "indexed": false,
          "internalType": "uint256",
          "name": "amountOut",
          "type": "uint256"
        }
      ],
      "name": "Swapped",
      "type": "event"
    },
    {
      "anonymous": false,
      "inputs": [
        {
          "indexed": true,
          "internalType": "address",
          "name": "operator",
          "type": "address"
        },
        {
          "indexed": true,
          "internalType": "address",
          "name": "from",
          "type": "address"
        },
        {
          "indexed": true,
          "internalType": "address",
          "name": "to",
          "type": "address"
        },
        {
          "indexed": false,
          "internalType": "uint256[]",
          "name": "ids",
          "type": "uint256[]"
        },
        {
          "indexed": false,
          "internalType": "uint256[]",
          "name": "amounts",
          "type": "uint256[]"
        }
      ],
      "name": "TransferBatch",
      "type": "event"
    },
    {
      "anonymous": false,
      "inputs": [
        {
          "indexed": true,
          "internalType": "address",
          "name": "operator",
          "type": "address"
        },
        {
          "indexed": true,
          "internalType": "address",
          "name": "from",
          "type": "address"
        },
        {
          "indexed": true,
          "internalType": "address",
          "name": "to",
          "type": "address"
        },
        {
          "indexed": false,
          "internalType": "uint256",
          "name": "id",
          "type": "uint256"
        },
        {
          "indexed": false,
          "internalType": "uint256",
          "name": "amount",
          "type": "uint256"
        }
      ],
      "name": "TransferSingle",
      "type": "event"
    },
    {
      "anonymous": false,
      "inputs": [
        {
          "indexed": false,
          "internalType": "string",
          "name": "value",
          "type": "string"
        },
        {
          "indexed": true,
          "internalType": "uint256",
          "name": "id",
          "type": "uint256"
        }
      ],
      "name": "URI",
      "type": "event"
    },
    {
      "inputs": [
        {
          "internalType": "address",
          "name": "to",
          "type": "address"
        },
        {
          "internalType": "uint256",
          "name": "id",
          "type": "uint256"
        },
        {
          "internalType": "uint256",
          "name": "token0amount",
          "type": "uint256"
        },
        {
          "internalType": "uint256",
          "name": "token1amount",
          "type": "uint256"
        },
        {
          "internalType": "bytes",
          "name": "data",
          "type": "bytes"
        }
      ],
      "name": "addLiquidity",
      "outputs": [
        {
          "internalType": "uint256",
          "name": "liq",
          "type": "uint256"
        }
      ],
      "stateMutability": "payable",
      "type": "function"
    },
    {
      "inputs": [
        {
          "internalType": "address",
          "name": "",
          "type": "address"
        },
        {
          "internalType": "uint256",
          "name": "",
          "type": "uint256"
        }
      ],
      "name": "balanceOf",
      "outputs": [
        {
          "internalType": "uint256",
          "name": "",
          "type": "uint256"
        }
      ],
      "stateMutability": "view",
      "type": "function"
    },
    {
      "inputs": [
        {
          "internalType": "address[]",
          "name": "owners",
          "type": "address[]"
        },
        {
          "internalType": "uint256[]",
          "name": "ids",
          "type": "uint256[]"
        }
      ],
      "name": "balanceOfBatch",
      "outputs": [
        {
          "internalType": "uint256[]",
          "name": "balances",
          "type": "uint256[]"
        }
      ],
      "stateMutability": "view",
      "type": "function"
    },
    {
      "inputs": [
        {
          "internalType": "address",
          "name": "to",
          "type": "address"
        },
        {
          "internalType": "contract ERC20",
          "name": "tokenA",
          "type": "address"
        },
        {
          "internalType": "contract ERC20",
          "name": "tokenB",
          "type": "address"
        },
        {
          "internalType": "uint256",
          "name": "tokenAamount",
          "type": "uint256"
        },
        {
          "internalType": "uint256",
          "name": "tokenBamount",
          "type": "uint256"
        },
        {
          "internalType": "contract IHelios",
          "name": "swapper",
          "type": "address"
        },
        {
          "internalType": "uint8",
          "name": "fee",
          "type": "uint8"
        },
        {
          "internalType": "bytes",
          "name": "data",
          "type": "bytes"
        }
      ],
      "name": "createPair",
      "outputs": [
        {
          "internalType": "uint256",
          "name": "id",
          "type": "uint256"
        },
        {
          "internalType": "uint256",
          "name": "liq",
          "type": "uint256"
        }
      ],
      "stateMutability": "payable",
      "type": "function"
    },
    {
      "inputs": [
        {
          "internalType": "address",
          "name": "",
          "type": "address"
        },
        {
          "internalType": "address",
          "name": "",
          "type": "address"
        }
      ],
      "name": "isApprovedForAll",
      "outputs": [
        {
          "internalType": "bool",
          "name": "",
          "type": "bool"
        }
      ],
      "stateMutability": "view",
      "type": "function"
    },
    {
      "inputs": [
        {
          "internalType": "bytes[]",
          "name": "data",
          "type": "bytes[]"
        }
      ],
      "name": "multicall",
      "outputs": [
        {
          "internalType": "bytes[]",
          "name": "results",
          "type": "bytes[]"
        }
      ],
      "stateMutability": "nonpayable",
      "type": "function"
    },
    {
      "inputs": [],
      "name": "name",
      "outputs": [
        {
          "internalType": "string",
          "name": "",
          "type": "string"
        }
      ],
      "stateMutability": "view",
      "type": "function"
    },
    {
      "inputs": [
        {
          "internalType": "uint256",
          "name": "",
          "type": "uint256"
        }
      ],
      "name": "pairs",
      "outputs": [
        {
          "internalType": "contract ERC20",
          "name": "token0",
          "type": "address"
        },
        {
          "internalType": "contract ERC20",
          "name": "token1",
          "type": "address"
        },
        {
          "internalType": "contract IHelios",
          "name": "swapper",
          "type": "address"
        },
        {
          "internalType": "uint112",
          "name": "reserve0",
          "type": "uint112"
        },
        {
          "internalType": "uint112",
          "name": "reserve1",
          "type": "uint112"
        },
        {
          "internalType": "uint8",
          "name": "fee",
          "type": "uint8"
        }
      ],
      "stateMutability": "view",
      "type": "function"
    },
    {
      "inputs": [
        {
          "internalType": "address",
          "name": "to",
          "type": "address"
        },
        {
          "internalType": "uint256",
          "name": "id",
          "type": "uint256"
        },
        {
          "internalType": "uint256",
          "name": "liq",
          "type": "uint256"
        }
      ],
      "name": "removeLiquidity",
      "outputs": [
        {
          "internalType": "uint256",
          "name": "amount0out",
          "type": "uint256"
        },
        {
          "internalType": "uint256",
          "name": "amount1out",
          "type": "uint256"
        }
      ],
      "stateMutability": "payable",
      "type": "function"
    },
    {
      "inputs": [
        {
          "internalType": "address",
          "name": "from",
          "type": "address"
        },
        {
          "internalType": "address",
          "name": "to",
          "type": "address"
        },
        {
          "internalType": "uint256[]",
          "name": "ids",
          "type": "uint256[]"
        },
        {
          "internalType": "uint256[]",
          "name": "amounts",
          "type": "uint256[]"
        },
        {
          "internalType": "bytes",
          "name": "data",
          "type": "bytes"
        }
      ],
      "name": "safeBatchTransferFrom",
      "outputs": [],
      "stateMutability": "nonpayable",
      "type": "function"
    },
    {
      "inputs": [
        {
          "internalType": "address",
          "name": "from",
          "type": "address"
        },
        {
          "internalType": "address",
          "name": "to",
          "type": "address"
        },
        {
          "internalType": "uint256",
          "name": "id",
          "type": "uint256"
        },
        {
          "internalType": "uint256",
          "name": "amount",
          "type": "uint256"
        },
        {
          "internalType": "bytes",
          "name": "data",
          "type": "bytes"
        }
      ],
      "name": "safeTransferFrom",
      "outputs": [],
      "stateMutability": "nonpayable",
      "type": "function"
    },
    {
      "inputs": [
        {
          "internalType": "address",
          "name": "operator",
          "type": "address"
        },
        {
          "internalType": "bool",
          "name": "approved",
          "type": "bool"
        }
      ],
      "name": "setApprovalForAll",
      "outputs": [],
      "stateMutability": "nonpayable",
      "type": "function"
    },
    {
      "inputs": [
        {
          "internalType": "bytes4",
          "name": "interfaceId",
          "type": "bytes4"
        }
      ],
      "name": "supportsInterface",
      "outputs": [
        {
          "internalType": "bool",
          "name": "",
          "type": "bool"
        }
      ],
      "stateMutability": "view",
      "type": "function"
    },
    {
      "inputs": [
        {
          "internalType": "address",
          "name": "to",
          "type": "address"
        },
        {
          "internalType": "uint256",
          "name": "id",
          "type": "uint256"
        },
        {
          "internalType": "contract ERC20",
          "name": "tokenIn",
          "type": "address"
        },
        {
          "internalType": "uint256",
          "name": "amountIn",
          "type": "uint256"
        }
      ],
      "name": "swap",
      "outputs": [
        {
          "internalType": "uint256",
          "name": "amountOut",
          "type": "uint256"
        }
      ],
      "stateMutability": "payable",
      "type": "function"
    },
    {
      "inputs": [],
      "name": "symbol",
      "outputs": [
        {
          "internalType": "string",
          "name": "",
          "type": "string"
        }
      ],
      "stateMutability": "view",
      "type": "function"
    },
    {
      "inputs": [],
      "name": "totalSupply",
      "outputs": [
        {
          "internalType": "uint256",
          "name": "",
          "type": "uint256"
        }
      ],
      "stateMutability": "view",
      "type": "function"
    },
    {
      "inputs": [
        {
          "internalType": "uint256",
          "name": "",
          "type": "uint256"
        }
      ],
      "name": "totalSupplyForId",
      "outputs": [
        {
          "internalType": "uint256",
          "name": "",
          "type": "uint256"
        }
      ],
      "stateMutability": "view",
      "type": "function"
    },
    {
      "inputs": [
        {
          "internalType": "uint256",
          "name": "",
          "type": "uint256"
        }
      ],
      "name": "uri",
      "outputs": [
        {
          "internalType": "string",
          "name": "",
          "type": "string"
        }
      ],
      "stateMutability": "pure",
      "type": "function"
    }
  ],
  "bytecode": {
    "object": "0x608060405234801561001057600080fd5b50612a38806100206000396000f3fe6080604052600436106101285760003560e01c8063a22cb465116100a5578063e2965aed11610074578063e985e9c511610059578063e985e9c5146104a7578063f242432a146104e2578063f3b39b6c1461050257600080fd5b8063e2965aed1461046c578063e38192e31461049457600080fd5b8063a22cb4651461030f578063ac9650d81461032f578063af5149371461035c578063b91ac7881461038957600080fd5b806318160ddd116100fc5780634e1273f4116100e15780634e1273f4146102865780638a0ccd56146102b357806395d89b41146102c657600080fd5b806318160ddd1461024e5780632eb2c2d61461026457600080fd5b8062fdd58e1461012d57806301ffc9a71461017557806306fdde03146101a55780630e89341c146101fb575b600080fd5b34801561013957600080fd5b50610162610148366004612041565b600060208181529281526040808220909352908152205481565b6040519081526020015b60405180910390f35b34801561018157600080fd5b50610195610190366004612083565b610515565b604051901515815260200161016c565b3480156101b157600080fd5b506101ee6040518060400160405280600681526020017f48656c696f73000000000000000000000000000000000000000000000000000081525081565b60405161016c91906120ff565b34801561020757600080fd5b506101ee610216366004612112565b5060408051808201909152600b81527f504c414345484f4c444552000000000000000000000000000000000000000000602082015290565b34801561025a57600080fd5b5061016260025481565b34801561027057600080fd5b5061028461027f3660046121b9565b6105b2565b005b34801561029257600080fd5b506102a66102a1366004612278565b6108b3565b60405161016c91906122e4565b6101626102c1366004612328565b6109f6565b3480156102d257600080fd5b506101ee6040518060400160405280600481526020017f48454c490000000000000000000000000000000000000000000000000000000081525081565b34801561031b57600080fd5b5061028461032a366004612370565b610d7f565b34801561033b57600080fd5b5061034f61034a3660046123ae565b610deb565b60405161016c91906123f0565b34801561036857600080fd5b50610162610377366004612112565b60036020526000908152604090205481565b34801561039557600080fd5b506104206103a4366004612112565b60046020526000908152604090208054600182015460028301546003909301546001600160a01b039283169391831692909116906001600160701b03808216916e0100000000000000000000000000008104909116907c0100000000000000000000000000000000000000000000000000000000900460ff1686565b604080516001600160a01b039788168152958716602087015293909516928401929092526001600160701b03908116606084015216608082015260ff90911660a082015260c00161016c565b61047f61047a366004612452565b610f38565b6040805192835260208301919091520161016c565b61047f6104a236600461250f565b6114ee565b3480156104b357600080fd5b506101956104c2366004612544565b600160209081526000928352604080842090915290825290205460ff1681565b3480156104ee57600080fd5b506102846104fd366004612572565b611740565b6101626105103660046125ee565b61196c565b60007f01ffc9a7000000000000000000000000000000000000000000000000000000006001600160e01b03198316148061057857507fd9b67a26000000000000000000000000000000000000000000000000000000006001600160e01b03198316145b806105ac57507f0e89341c000000000000000000000000000000000000000000000000000000006001600160e01b03198316145b92915050565b8483146106065760405162461bcd60e51b815260206004820152600f60248201527f4c454e4754485f4d49534d41544348000000000000000000000000000000000060448201526064015b60405180910390fd5b336001600160a01b038916148061064057506001600160a01b038816600090815260016020908152604080832033845290915290205460ff165b61068c5760405162461bcd60e51b815260206004820152600e60248201527f4e4f545f415554484f52495a454400000000000000000000000000000000000060448201526064016105fd565b60008060005b87811015610747578888828181106106ac576106ac612643565b9050602002013592508686828181106106c7576106c7612643565b6001600160a01b038e166000908152602081815260408083208984528252822080549390910294909401359550859392509061070490849061266f565b90915550506001600160a01b038a166000908152602081815260408083208684529091528120805484929061073a908490612686565b9091555050600101610692565b50886001600160a01b03168a6001600160a01b0316336001600160a01b03167f4a39dc06d4c0dbc64b70af90fd698a233a518aa5d07e595d983b8c0526c8f7fb8b8b8b8b60405161079b94939291906126ed565b60405180910390a46001600160a01b0389163b1561085b576040517fbc197c8100000000000000000000000000000000000000000000000000000000808252906001600160a01b038b169063bc197c81906108089033908f908e908e908e908e908e908e90600401612748565b6020604051808303816000875af1158015610827573d6000803e3d6000fd5b505050506040513d601f19601f8201168201806040525081019061084b91906127ac565b6001600160e01b03191614610868565b6001600160a01b03891615155b6108a75760405162461bcd60e51b815260206004820152601060248201526f155394d0519157d49150d2541251539560821b60448201526064016105fd565b50505050505050505050565b60608382146109045760405162461bcd60e51b815260206004820152600f60248201527f4c454e4754485f4d49534d41544348000000000000000000000000000000000060448201526064016105fd565b8367ffffffffffffffff81111561091d5761091d6127c9565b604051908082528060200260200182016040528015610946578160200160208202803683370190505b50905060005b848110156109ed5760008087878481811061096957610969612643565b905060200201602081019061097e91906127df565b6001600160a01b03166001600160a01b0316815260200190815260200160002060008585848181106109b2576109b2612643565b905060200201358152602001908152602001600020548282815181106109da576109da612643565b602090810291909101015260010161094c565b50949350505050565b6000600254841115610a4a5760405162461bcd60e51b815260206004820152601960248201527f48656c696f733a20504149525f444f45534e545f45584953540000000000000060448201526064016105fd565b600084815260046020526040902080546001600160a01b0385811691161480610a82575060018101546001600160a01b038581169116145b610ace5760405162461bcd60e51b815260206004820152601660248201527f48656c696f733a204e4f545f504149525f544f4b454e0000000000000000000060448201526064016105fd565b6001600160a01b038416610ae457349250610af9565b610af96001600160a01b038516333086611c8f565b60028101546040517f43264349000000000000000000000000000000000000000000000000000000008152600481018790526001600160a01b03868116602483015260448201869052909116906343264349906064016020604051808303816000875af1158015610b6e573d6000803e3d6000fd5b505050506040513d601f19601f82011682018060405250810190610b9291906127fc565b60018201549092506001600160a01b0390811690851603610c7d5780546001600160a01b0316610bd457610bcf6001600160a01b03871683611d3b565b610bea565b8054610bea906001600160a01b03168784611d9b565b600381018054839190600090610c0a9084906001600160701b0316612815565b92506101000a8154816001600160701b0302191690836001600160701b031602179055508281600301600e8282829054906101000a90046001600160701b0316610c54919061283d565b92506101000a8154816001600160701b0302191690836001600160701b03160217905550610d25565b6001810154610c96906001600160a01b03168784611d9b565b600381018054849190600090610cb69084906001600160701b031661283d565b92506101000a8154816001600160701b0302191690836001600160701b031602179055508181600301600e8282829054906101000a90046001600160701b0316610d009190612815565b92506101000a8154816001600160701b0302191690836001600160701b031602179055505b60408051868152602081018590529081018390526001600160a01b0380861691908816907fd83a63a0ebf8fb6a344f0e3dc86dfc975e6009f82e455acc6622cc3fd7c5928d9060600160405180910390a350949350505050565b3360008181526001602090815260408083206001600160a01b03871680855290835292819020805460ff191686151590811790915590519081529192917f17307eab39ab6107e8899845ad3d59bd9653f200f220920489ca2b5937696c31910160405180910390a35050565b60608167ffffffffffffffff811115610e0657610e066127c9565b604051908082528060200260200182016040528015610e3957816020015b6060815260200190600190039081610e245790505b50905060005b82811015610f315760008030868685818110610e5d57610e5d612643565b9050602002810190610e6f9190612868565b604051610e7d9291906128af565b600060405180830381855af49150503d8060008114610eb8576040519150601f19603f3d011682016040523d82523d6000602084013e610ebd565b606091505b509150915081610f0957604481511015610ed657600080fd5b60048101905080806020019051810190610ef091906128bf565b60405162461bcd60e51b81526004016105fd91906120ff565b80848481518110610f1c57610f1c612643565b60209081029190910101525050600101610e3f565b5092915050565b600080886001600160a01b03168a6001600160a01b031603610f9c5760405162461bcd60e51b815260206004820152601b60248201527f48656c696f733a204944454e544943414c5f414444524553534553000000000060448201526064016105fd565b856001600160a01b03163b600003610ff65760405162461bcd60e51b815260206004820152601760248201527f48656c696f733a20494e56414c49445f5357415050455200000000000000000060448201526064016105fd565b6000806000808c6001600160a01b03168e6001600160a01b03161061101e578c8b8f8e611023565b8d8c8e8d5b935093509350935060056000856001600160a01b03166001600160a01b031681526020019081526020016000206000836001600160a01b03166001600160a01b0316815260200190815260200160002060008b6001600160a01b03166001600160a01b0316815260200190815260200160002060008a60ff168152602001908152602001600020546000146110fa5760405162461bcd60e51b815260206004820152601360248201527f48656c696f733a20504149525f4558495354530000000000000000000000000060448201526064016105fd565b6001600160a01b038416158061110f57503415155b1561114e576001600160a01b0384161561112857600093505b3492506111496001600160a01b03831633306001600160701b038516611c8f565b61118a565b61116c6001600160a01b03851633306001600160701b038716611c8f565b61118a6001600160a01b03831633306001600160701b038516611c8f565b60026000815460010191905081905595508560056000866001600160a01b03166001600160a01b031681526020019081526020016000206000846001600160a01b03166001600160a01b0316815260200190815260200160002060008c6001600160a01b03166001600160a01b0316815260200190815260200160002060008b60ff168152602001908152602001600020819055506040518060c00160405280856001600160a01b03168152602001836001600160a01b031681526020018b6001600160a01b03168152602001846001600160701b03168152602001826001600160701b031681526020018a60ff168152506004600088815260200190815260200160002060008201518160000160006101000a8154816001600160a01b0302191690836001600160a01b0316021790555060208201518160010160006101000a8154816001600160a01b0302191690836001600160a01b0316021790555060408201518160020160006101000a8154816001600160a01b0302191690836001600160a01b0316021790555060608201518160030160006101000a8154816001600160701b0302191690836001600160701b03160217905550608082015181600301600e6101000a8154816001600160701b0302191690836001600160701b0316021790555060a082015181600301601c6101000a81548160ff021916908360ff160217905550905050896001600160a01b031663422f10438785846040518463ffffffff1660e01b81526004016113de939291909283526001600160701b03918216602084015216604082015260600190565b6020604051808303816000875af11580156113fd573d6000803e3d6000fd5b505050506040513d601f19601f8201168201806040525081019061142191906127fc565b94506114658f87878b8b8080601f016020809104026020016040519081016040528093929190818152602001838380828437600092019190915250611e4092505050565b8460036000888152602001908152602001600020819055508e6001600160a01b03167f64b83944e79c3ce8d4c297411de637c3e102d064677aac0c163976ebdcd6f50e8785846040516114d4939291909283526001600160701b03918216602084015216604082015260600190565b60405180910390a250505050995099975050505050505050565b6000806002548411156115435760405162461bcd60e51b815260206004820152601960248201527f48656c696f733a20504149525f444f45534e545f45584953540000000000000060448201526064016105fd565b600084815260046020819052604091829020600281015492517f9d7de6b300000000000000000000000000000000000000000000000000000000815291820187905260248201869052916001600160a01b031690639d7de6b39060440160408051808303816000875af11580156115be573d6000803e3d6000fd5b505050506040513d601f19601f820116820180604052508101906115e29190612961565b825491945092506001600160a01b031661160e576116096001600160a01b03871684611d3b565b611624565b8054611624906001600160a01b03168785611d9b565b600181015461163d906001600160a01b03168784611d9b565b611648338686611fa5565b6003810180548491906000906116689084906001600160701b0316612815565b92506101000a8154816001600160701b0302191690836001600160701b031602179055508181600301600e8282829054906101000a90046001600160701b03166116b29190612815565b82546001600160701b039182166101009390930a9283029190920219909116179055506000858152600360209081526040918290208054879003905581518781529081018590529081018390526001600160a01b038716907f1dc8bb69df2b8e91fbdcbfcf93d951b3f0000f085a95fe3f7946d6161439245d9060600160405180910390a250935093915050565b336001600160a01b038716148061177a57506001600160a01b038616600090815260016020908152604080832033845290915290205460ff165b6117c65760405162461bcd60e51b815260206004820152600e60248201527f4e4f545f415554484f52495a454400000000000000000000000000000000000060448201526064016105fd565b6001600160a01b038616600090815260208181526040808320878452909152812080548592906117f790849061266f565b90915550506001600160a01b0385166000908152602081815260408083208784529091528120805485929061182d908490612686565b909155505060408051858152602081018590526001600160a01b03808816929089169133917fc3d58168c5ae7397731d063d5bbf3d657854427343f4c083240f7aacaa2d0f62910160405180910390a46001600160a01b0385163b156119185760405163f23a6e6160e01b808252906001600160a01b0387169063f23a6e61906118c59033908b908a908a908a908a90600401612985565b6020604051808303816000875af11580156118e4573d6000803e3d6000fd5b505050506040513d601f19601f8201168201806040525081019061190891906127ac565b6001600160e01b03191614611925565b6001600160a01b03851615155b6119645760405162461bcd60e51b815260206004820152601060248201526f155394d0519157d49150d2541251539560821b60448201526064016105fd565b505050505050565b60006002548611156119c05760405162461bcd60e51b815260206004820152601960248201527f48656c696f733a20504149525f444f45534e545f45584953540000000000000060448201526064016105fd565b600086815260046020526040902080546001600160a01b03166119ff5760018101543496506119fa906001600160a01b0316333088611c8f565b611a30565b8054611a16906001600160a01b0316333089611c8f565b6001810154611a30906001600160a01b0316333088611c8f565b60028101546040517f422f10430000000000000000000000000000000000000000000000000000000081526004810189905260248101889052604481018790526001600160a01b039091169063422f1043906064016020604051808303816000875af1158015611aa4573d6000803e3d6000fd5b505050506040513d601f19601f82011682018060405250810190611ac891906127fc565b915081600003611b405760405162461bcd60e51b815260206004820152602560248201527f48656c696f733a20494e53554646494349454e545f4c49515549444954595f4d60448201527f494e54454400000000000000000000000000000000000000000000000000000060648201526084016105fd565b611b8288888487878080601f016020809104026020016040519081016040528093929190818152602001838380828437600092019190915250611e4092505050565b600381018054879190600090611ba29084906001600160701b031661283d565b92506101000a8154816001600160701b0302191690836001600160701b031602179055508481600301600e8282829054906101000a90046001600160701b0316611bec919061283d565b92506101000a8154816001600160701b0302191690836001600160701b0316021790555081600360008981526020019081526020016000206000828254611c339190612686565b909155505060408051888152602081018890529081018690526001600160a01b038916907f64b83944e79c3ce8d4c297411de637c3e102d064677aac0c163976ebdcd6f50e9060600160405180910390a2509695505050505050565b60006040517f23b872dd0000000000000000000000000000000000000000000000000000000081528460048201528360248201528260448201526020600060648360008a5af13d15601f3d1160016000511416171691505080611d345760405162461bcd60e51b815260206004820152601460248201527f5452414e534645525f46524f4d5f4641494c454400000000000000000000000060448201526064016105fd565b5050505050565b600080600080600085875af1905080611d965760405162461bcd60e51b815260206004820152601360248201527f4554485f5452414e534645525f4641494c45440000000000000000000000000060448201526064016105fd565b505050565b60006040517fa9059cbb000000000000000000000000000000000000000000000000000000008152836004820152826024820152602060006044836000895af13d15601f3d1160016000511416171691505080611e3a5760405162461bcd60e51b815260206004820152600f60248201527f5452414e534645525f4641494c4544000000000000000000000000000000000060448201526064016105fd565b50505050565b6001600160a01b03841660009081526020818152604080832086845290915281208054849290611e71908490612686565b909155505060408051848152602081018490526001600160a01b0386169160009133917fc3d58168c5ae7397731d063d5bbf3d657854427343f4c083240f7aacaa2d0f62910160405180910390a46001600160a01b0384163b15611f595760405163f23a6e6160e01b808252906001600160a01b0386169063f23a6e6190611f069033906000908990899089906004016129ca565b6020604051808303816000875af1158015611f25573d6000803e3d6000fd5b505050506040513d601f19601f82011682018060405250810190611f4991906127ac565b6001600160e01b03191614611f66565b6001600160a01b03841615155b611e3a5760405162461bcd60e51b815260206004820152601060248201526f155394d0519157d49150d2541251539560821b60448201526064016105fd565b6001600160a01b03831660009081526020818152604080832085845290915281208054839290611fd690849061266f565b909155505060408051838152602081018390526000916001600160a01b0386169133917fc3d58168c5ae7397731d063d5bbf3d657854427343f4c083240f7aacaa2d0f62910160405180910390a4505050565b6001600160a01b038116811461203e57600080fd5b50565b6000806040838503121561205457600080fd5b823561205f81612029565b946020939093013593505050565b6001600160e01b03198116811461203e57600080fd5b60006020828403121561209557600080fd5b81356120a08161206d565b9392505050565b60005b838110156120c25781810151838201526020016120aa565b83811115611e3a5750506000910152565b600081518084526120eb8160208601602086016120a7565b601f01601f19169290920160200192915050565b6020815260006120a060208301846120d3565b60006020828403121561212457600080fd5b5035919050565b60008083601f84011261213d57600080fd5b50813567ffffffffffffffff81111561215557600080fd5b6020830191508360208260051b850101111561217057600080fd5b9250929050565b60008083601f84011261218957600080fd5b50813567ffffffffffffffff8111156121a157600080fd5b60208301915083602082850101111561217057600080fd5b60008060008060008060008060a0898b0312156121d557600080fd5b88356121e081612029565b975060208901356121f081612029565b9650604089013567ffffffffffffffff8082111561220d57600080fd5b6122198c838d0161212b565b909850965060608b013591508082111561223257600080fd5b61223e8c838d0161212b565b909650945060808b013591508082111561225757600080fd5b506122648b828c01612177565b999c989b5096995094979396929594505050565b6000806000806040858703121561228e57600080fd5b843567ffffffffffffffff808211156122a657600080fd5b6122b28883890161212b565b909650945060208701359150808211156122cb57600080fd5b506122d88782880161212b565b95989497509550505050565b6020808252825182820181905260009190848201906040850190845b8181101561231c57835183529284019291840191600101612300565b50909695505050505050565b6000806000806080858703121561233e57600080fd5b843561234981612029565b935060208501359250604085013561236081612029565b9396929550929360600135925050565b6000806040838503121561238357600080fd5b823561238e81612029565b9150602083013580151581146123a357600080fd5b809150509250929050565b600080602083850312156123c157600080fd5b823567ffffffffffffffff8111156123d857600080fd5b6123e48582860161212b565b90969095509350505050565b6000602080830181845280855180835260408601915060408160051b870101925083870160005b8281101561244557603f198886030184526124338583516120d3565b94509285019290850190600101612417565b5092979650505050505050565b60008060008060008060008060006101008a8c03121561247157600080fd5b893561247c81612029565b985060208a013561248c81612029565b975060408a013561249c81612029565b965060608a0135955060808a0135945060a08a01356124ba81612029565b935060c08a013560ff811681146124d057600080fd5b925060e08a013567ffffffffffffffff8111156124ec57600080fd5b6124f88c828d01612177565b915080935050809150509295985092959850929598565b60008060006060848603121561252457600080fd5b833561252f81612029565b95602085013595506040909401359392505050565b6000806040838503121561255757600080fd5b823561256281612029565b915060208301356123a381612029565b60008060008060008060a0878903121561258b57600080fd5b863561259681612029565b955060208701356125a681612029565b94506040870135935060608701359250608087013567ffffffffffffffff8111156125d057600080fd5b6125dc89828a01612177565b979a9699509497509295939492505050565b60008060008060008060a0878903121561260757600080fd5b863561261281612029565b9550602087013594506040870135935060608701359250608087013567ffffffffffffffff8111156125d057600080fd5b634e487b7160e01b600052603260045260246000fd5b634e487b7160e01b600052601160045260246000fd5b60008282101561268157612681612659565b500390565b6000821982111561269957612699612659565b500190565b81835260007f07ffffffffffffffffffffffffffffffffffffffffffffffffffffffffffffff8311156126d057600080fd5b8260051b8083602087013760009401602001938452509192915050565b60408152600061270160408301868861269e565b828103602084015261271481858761269e565b979650505050505050565b81835281816020850137506000828201602090810191909152601f909101601f19169091010190565b60006001600160a01b03808b168352808a1660208401525060a0604083015261277560a08301888a61269e565b828103606084015261278881878961269e565b9050828103608084015261279d81858761271f565b9b9a5050505050505050505050565b6000602082840312156127be57600080fd5b81516120a08161206d565b634e487b7160e01b600052604160045260246000fd5b6000602082840312156127f157600080fd5b81356120a081612029565b60006020828403121561280e57600080fd5b5051919050565b60006001600160701b038381169083168181101561283557612835612659565b039392505050565b60006001600160701b0380831681851680830382111561285f5761285f612659565b01949350505050565b6000808335601e1984360301811261287f57600080fd5b83018035915067ffffffffffffffff82111561289a57600080fd5b60200191503681900382131561217057600080fd5b8183823760009101908152919050565b6000602082840312156128d157600080fd5b815167ffffffffffffffff808211156128e957600080fd5b818401915084601f8301126128fd57600080fd5b81518181111561290f5761290f6127c9565b604051601f8201601f19908116603f01168101908382118183101715612937576129376127c9565b8160405282815287602084870101111561295057600080fd5b6127148360208301602088016120a7565b6000806040838503121561297457600080fd5b505080516020909101519092909150565b60006001600160a01b03808916835280881660208401525085604083015284606083015260a060808301526129be60a08301848661271f565b98975050505050505050565b60006001600160a01b03808816835280871660208401525084604083015283606083015260a0608083015261271460a08301846120d356fea2646970667358221220efd5ef65e8f239fc52f4af20ad41d19ba002d5bf88bca5e4205b0d12a1b2520164736f6c634300080d0033",
    "linkReferences": {}
  }
}