{
  "abi": [
    {
      "anonymous": false,
      "inputs": [
        {
          "indexed": true,
          "internalType": "address",
          "name": "owner",
          "type": "address"
        },
        {
          "indexed": true,
          "internalType": "address",
          "name": "operator",
          "type": "address"
        },
        {
          "indexed": false,
          "internalType": "bool",
          "name": "approved",
          "type": "bool"
        }
      ],
      "name": "ApprovalForAll",
      "type": "event"
    },
    {
      "anonymous": false,
      "inputs": [
        {
          "indexed": true,
          "internalType": "address",
          "name": "to",
          "type": "address"
        },
        {
          "indexed": false,
          "internalType": "uint256",
          "name": "id",
          "type": "uint256"
        },
        {
          "indexed": false,
          "internalType": "uint256",
          "name": "token0amount",
          "type": "uint256"
        },
        {
          "indexed": false,
          "internalType": "uint256",
          "name": "token1amount",
          "type": "uint256"
        }
      ],
      "name": "LiquidityAdded",
      "type": "event"
    },
    {
      "anonymous": false,
      "inputs": [
        {
          "indexed": true,
          "internalType": "address",
          "name": "from",
          "type": "address"
        },
        {
          "indexed": false,
          "internalType": "uint256",
          "name": "id",
          "type": "uint256"
        },
        {
          "indexed": false,
          "internalType": "uint256",
          "name": "amount0out",
          "type": "uint256"
        },
        {
          "indexed": false,
          "internalType": "uint256",
          "name": "amount1out",
          "type": "uint256"
        }
      ],
      "name": "LiquidityRemoved",
      "type": "event"
    },
    {
      "anonymous": false,
      "inputs": [
        {
          "indexed": true,
          "internalType": "address",
          "name": "to",
          "type": "address"
        },
        {
          "indexed": false,
          "internalType": "uint256",
          "name": "id",
          "type": "uint256"
        },
        {
          "indexed": true,
          "internalType": "contract ERC20",
          "name": "token0",
          "type": "address"
        },
        {
          "indexed": true,
          "internalType": "contract ERC20",
          "name": "token1",
          "type": "address"
        }
      ],
      "name": "PairCreated",
      "type": "event"
    },
    {
      "anonymous": false,
      "inputs": [
        {
          "indexed": true,
          "internalType": "address",
          "name": "to",
          "type": "address"
        },
        {
          "indexed": false,
          "internalType": "uint256",
          "name": "id",
          "type": "uint256"
        },
        {
          "indexed": true,
          "internalType": "contract ERC20",
          "name": "tokenIn",
          "type": "address"
        },
        {
          "indexed": false,
          "internalType": "uint256",
          "name": "amountIn",
          "type": "uint256"
        },
        {
          "indexed": false,
          "internalType": "uint256",
          "name": "amountOut",
          "type": "uint256"
        }
      ],
      "name": "Swapped",
      "type": "event"
    },
    {
      "anonymous": false,
      "inputs": [
        {
          "indexed": true,
          "internalType": "address",
          "name": "operator",
          "type": "address"
        },
        {
          "indexed": true,
          "internalType": "address",
          "name": "from",
          "type": "address"
        },
        {
          "indexed": true,
          "internalType": "address",
          "name": "to",
          "type": "address"
        },
        {
          "indexed": false,
          "internalType": "uint256[]",
          "name": "ids",
          "type": "uint256[]"
        },
        {
          "indexed": false,
          "internalType": "uint256[]",
          "name": "amounts",
          "type": "uint256[]"
        }
      ],
      "name": "TransferBatch",
      "type": "event"
    },
    {
      "anonymous": false,
      "inputs": [
        {
          "indexed": true,
          "internalType": "address",
          "name": "operator",
          "type": "address"
        },
        {
          "indexed": true,
          "internalType": "address",
          "name": "from",
          "type": "address"
        },
        {
          "indexed": true,
          "internalType": "address",
          "name": "to",
          "type": "address"
        },
        {
          "indexed": false,
          "internalType": "uint256",
          "name": "id",
          "type": "uint256"
        },
        {
          "indexed": false,
          "internalType": "uint256",
          "name": "amount",
          "type": "uint256"
        }
      ],
      "name": "TransferSingle",
      "type": "event"
    },
    {
      "anonymous": false,
      "inputs": [
        {
          "indexed": false,
          "internalType": "string",
          "name": "value",
          "type": "string"
        },
        {
          "indexed": true,
          "internalType": "uint256",
          "name": "id",
          "type": "uint256"
        }
      ],
      "name": "URI",
      "type": "event"
    },
    {
      "inputs": [
        {
          "internalType": "address",
          "name": "to",
          "type": "address"
        },
        {
          "internalType": "uint256",
          "name": "id",
          "type": "uint256"
        },
        {
          "internalType": "uint256",
          "name": "token0amount",
          "type": "uint256"
        },
        {
          "internalType": "uint256",
          "name": "token1amount",
          "type": "uint256"
        },
        {
          "internalType": "bytes",
          "name": "data",
          "type": "bytes"
        }
      ],
      "name": "addLiquidity",
      "outputs": [
        {
          "internalType": "uint256",
          "name": "liq",
          "type": "uint256"
        }
      ],
      "stateMutability": "payable",
      "type": "function"
    },
    {
      "inputs": [
        {
          "internalType": "address",
          "name": "",
          "type": "address"
        },
        {
          "internalType": "uint256",
          "name": "",
          "type": "uint256"
        }
      ],
      "name": "balanceOf",
      "outputs": [
        {
          "internalType": "uint256",
          "name": "",
          "type": "uint256"
        }
      ],
      "stateMutability": "view",
      "type": "function"
    },
    {
      "inputs": [
        {
          "internalType": "address[]",
          "name": "owners",
          "type": "address[]"
        },
        {
          "internalType": "uint256[]",
          "name": "ids",
          "type": "uint256[]"
        }
      ],
      "name": "balanceOfBatch",
      "outputs": [
        {
          "internalType": "uint256[]",
          "name": "balances",
          "type": "uint256[]"
        }
      ],
      "stateMutability": "view",
      "type": "function"
    },
    {
      "inputs": [
        {
          "internalType": "address",
          "name": "to",
          "type": "address"
        },
        {
          "internalType": "contract ERC20",
          "name": "tokenA",
          "type": "address"
        },
        {
          "internalType": "contract ERC20",
          "name": "tokenB",
          "type": "address"
        },
        {
          "internalType": "uint256",
          "name": "tokenAamount",
          "type": "uint256"
        },
        {
          "internalType": "uint256",
          "name": "tokenBamount",
          "type": "uint256"
        },
        {
          "internalType": "contract IHelios",
          "name": "swapper",
          "type": "address"
        },
        {
          "internalType": "uint8",
          "name": "fee",
          "type": "uint8"
        },
        {
          "internalType": "bytes",
          "name": "data",
          "type": "bytes"
        }
      ],
      "name": "createPair",
      "outputs": [
        {
          "internalType": "uint256",
          "name": "id",
          "type": "uint256"
        },
        {
          "internalType": "uint256",
          "name": "liq",
          "type": "uint256"
        }
      ],
      "stateMutability": "payable",
      "type": "function"
    },
    {
      "inputs": [
        {
          "internalType": "address",
          "name": "",
          "type": "address"
        },
        {
          "internalType": "address",
          "name": "",
          "type": "address"
        }
      ],
      "name": "isApprovedForAll",
      "outputs": [
        {
          "internalType": "bool",
          "name": "",
          "type": "bool"
        }
      ],
      "stateMutability": "view",
      "type": "function"
    },
    {
      "inputs": [
        {
          "internalType": "bytes[]",
          "name": "data",
          "type": "bytes[]"
        }
      ],
      "name": "multicall",
      "outputs": [
        {
          "internalType": "bytes[]",
          "name": "results",
          "type": "bytes[]"
        }
      ],
      "stateMutability": "nonpayable",
      "type": "function"
    },
    {
      "inputs": [],
      "name": "name",
      "outputs": [
        {
          "internalType": "string",
          "name": "",
          "type": "string"
        }
      ],
      "stateMutability": "view",
      "type": "function"
    },
    {
      "inputs": [
        {
          "internalType": "uint256",
          "name": "",
          "type": "uint256"
        }
      ],
      "name": "pairs",
      "outputs": [
        {
          "internalType": "contract ERC20",
          "name": "token0",
          "type": "address"
        },
        {
          "internalType": "contract ERC20",
          "name": "token1",
          "type": "address"
        },
        {
          "internalType": "contract IHelios",
          "name": "swapper",
          "type": "address"
        },
        {
          "internalType": "uint112",
          "name": "reserve0",
          "type": "uint112"
        },
        {
          "internalType": "uint112",
          "name": "reserve1",
          "type": "uint112"
        },
        {
          "internalType": "uint8",
          "name": "fee",
          "type": "uint8"
        }
      ],
      "stateMutability": "view",
      "type": "function"
    },
    {
      "inputs": [
        {
          "internalType": "address",
          "name": "to",
          "type": "address"
        },
        {
          "internalType": "uint256",
          "name": "id",
          "type": "uint256"
        },
        {
          "internalType": "uint256",
          "name": "liq",
          "type": "uint256"
        }
      ],
      "name": "removeLiquidity",
      "outputs": [
        {
          "internalType": "uint256",
          "name": "amount0out",
          "type": "uint256"
        },
        {
          "internalType": "uint256",
          "name": "amount1out",
          "type": "uint256"
        }
      ],
      "stateMutability": "payable",
      "type": "function"
    },
    {
      "inputs": [
        {
          "internalType": "address",
          "name": "from",
          "type": "address"
        },
        {
          "internalType": "address",
          "name": "to",
          "type": "address"
        },
        {
          "internalType": "uint256[]",
          "name": "ids",
          "type": "uint256[]"
        },
        {
          "internalType": "uint256[]",
          "name": "amounts",
          "type": "uint256[]"
        },
        {
          "internalType": "bytes",
          "name": "data",
          "type": "bytes"
        }
      ],
      "name": "safeBatchTransferFrom",
      "outputs": [],
      "stateMutability": "nonpayable",
      "type": "function"
    },
    {
      "inputs": [
        {
          "internalType": "address",
          "name": "from",
          "type": "address"
        },
        {
          "internalType": "address",
          "name": "to",
          "type": "address"
        },
        {
          "internalType": "uint256",
          "name": "id",
          "type": "uint256"
        },
        {
          "internalType": "uint256",
          "name": "amount",
          "type": "uint256"
        },
        {
          "internalType": "bytes",
          "name": "data",
          "type": "bytes"
        }
      ],
      "name": "safeTransferFrom",
      "outputs": [],
      "stateMutability": "nonpayable",
      "type": "function"
    },
    {
      "inputs": [
        {
          "internalType": "address",
          "name": "operator",
          "type": "address"
        },
        {
          "internalType": "bool",
          "name": "approved",
          "type": "bool"
        }
      ],
      "name": "setApprovalForAll",
      "outputs": [],
      "stateMutability": "nonpayable",
      "type": "function"
    },
    {
      "inputs": [
        {
          "internalType": "bytes4",
          "name": "interfaceId",
          "type": "bytes4"
        }
      ],
      "name": "supportsInterface",
      "outputs": [
        {
          "internalType": "bool",
          "name": "",
          "type": "bool"
        }
      ],
      "stateMutability": "view",
      "type": "function"
    },
    {
      "inputs": [
        {
          "internalType": "address",
          "name": "to",
          "type": "address"
        },
        {
          "internalType": "uint256",
          "name": "id",
          "type": "uint256"
        },
        {
          "internalType": "contract ERC20",
          "name": "tokenIn",
          "type": "address"
        },
        {
          "internalType": "uint256",
          "name": "amountIn",
          "type": "uint256"
        }
      ],
      "name": "swap",
      "outputs": [
        {
          "internalType": "uint256",
          "name": "amountOut",
          "type": "uint256"
        }
      ],
      "stateMutability": "payable",
      "type": "function"
    },
    {
      "inputs": [],
      "name": "symbol",
      "outputs": [
        {
          "internalType": "string",
          "name": "",
          "type": "string"
        }
      ],
      "stateMutability": "view",
      "type": "function"
    },
    {
      "inputs": [],
      "name": "totalSupply",
      "outputs": [
        {
          "internalType": "uint256",
          "name": "",
          "type": "uint256"
        }
      ],
      "stateMutability": "view",
      "type": "function"
    },
    {
      "inputs": [
        {
          "internalType": "uint256",
          "name": "",
          "type": "uint256"
        }
      ],
      "name": "totalSupplyForId",
      "outputs": [
        {
          "internalType": "uint256",
          "name": "",
          "type": "uint256"
        }
      ],
      "stateMutability": "view",
      "type": "function"
    },
    {
      "inputs": [
        {
          "internalType": "uint256",
          "name": "",
          "type": "uint256"
        }
      ],
      "name": "uri",
      "outputs": [
        {
          "internalType": "string",
          "name": "",
          "type": "string"
        }
      ],
      "stateMutability": "pure",
      "type": "function"
    }
  ],
  "bytecode": {
    "object": "0x608060405234801561001057600080fd5b506129f6806100206000396000f3fe6080604052600436106101285760003560e01c8063a22cb465116100a5578063e2965aed11610074578063e985e9c511610059578063e985e9c5146104a7578063f242432a146104e2578063f3b39b6c1461050257600080fd5b8063e2965aed1461046c578063e38192e31461049457600080fd5b8063a22cb4651461030f578063ac9650d81461032f578063af5149371461035c578063b91ac7881461038957600080fd5b806318160ddd116100fc5780634e1273f4116100e15780634e1273f4146102865780638a0ccd56146102b357806395d89b41146102c657600080fd5b806318160ddd1461024e5780632eb2c2d61461026457600080fd5b8062fdd58e1461012d57806301ffc9a71461017557806306fdde03146101a55780630e89341c146101fb575b600080fd5b34801561013957600080fd5b50610162610148366004611fff565b600060208181529281526040808220909352908152205481565b6040519081526020015b60405180910390f35b34801561018157600080fd5b50610195610190366004612041565b610515565b604051901515815260200161016c565b3480156101b157600080fd5b506101ee6040518060400160405280600681526020017f48656c696f73000000000000000000000000000000000000000000000000000081525081565b60405161016c91906120bd565b34801561020757600080fd5b506101ee6102163660046120d0565b5060408051808201909152600b81527f504c414345484f4c444552000000000000000000000000000000000000000000602082015290565b34801561025a57600080fd5b5061016260025481565b34801561027057600080fd5b5061028461027f366004612177565b6105b2565b005b34801561029257600080fd5b506102a66102a1366004612236565b6108b3565b60405161016c91906122a2565b6101626102c13660046122e6565b6109f6565b3480156102d257600080fd5b506101ee6040518060400160405280600481526020017f48454c490000000000000000000000000000000000000000000000000000000081525081565b34801561031b57600080fd5b5061028461032a36600461232e565b610d7f565b34801561033b57600080fd5b5061034f61034a36600461236c565b610deb565b60405161016c91906123ae565b34801561036857600080fd5b506101626103773660046120d0565b60036020526000908152604090205481565b34801561039557600080fd5b506104206103a43660046120d0565b60046020526000908152604090208054600182015460028301546003909301546001600160a01b039283169391831692909116906001600160701b03808216916e0100000000000000000000000000008104909116907c0100000000000000000000000000000000000000000000000000000000900460ff1686565b604080516001600160a01b039788168152958716602087015293909516928401929092526001600160701b03908116606084015216608082015260ff90911660a082015260c00161016c565b61047f61047a366004612410565b610f38565b6040805192835260208301919091520161016c565b61047f6104a23660046124cd565b6114ac565b3480156104b357600080fd5b506101956104c2366004612502565b600160209081526000928352604080842090915290825290205460ff1681565b3480156104ee57600080fd5b506102846104fd366004612530565b6116fe565b6101626105103660046125ac565b61192a565b60007f01ffc9a7000000000000000000000000000000000000000000000000000000006001600160e01b03198316148061057857507fd9b67a26000000000000000000000000000000000000000000000000000000006001600160e01b03198316145b806105ac57507f0e89341c000000000000000000000000000000000000000000000000000000006001600160e01b03198316145b92915050565b8483146106065760405162461bcd60e51b815260206004820152600f60248201527f4c454e4754485f4d49534d41544348000000000000000000000000000000000060448201526064015b60405180910390fd5b336001600160a01b038916148061064057506001600160a01b038816600090815260016020908152604080832033845290915290205460ff165b61068c5760405162461bcd60e51b815260206004820152600e60248201527f4e4f545f415554484f52495a454400000000000000000000000000000000000060448201526064016105fd565b60008060005b87811015610747578888828181106106ac576106ac612601565b9050602002013592508686828181106106c7576106c7612601565b6001600160a01b038e166000908152602081815260408083208984528252822080549390910294909401359550859392509061070490849061262d565b90915550506001600160a01b038a166000908152602081815260408083208684529091528120805484929061073a908490612644565b9091555050600101610692565b50886001600160a01b03168a6001600160a01b0316336001600160a01b03167f4a39dc06d4c0dbc64b70af90fd698a233a518aa5d07e595d983b8c0526c8f7fb8b8b8b8b60405161079b94939291906126ab565b60405180910390a46001600160a01b0389163b1561085b576040517fbc197c8100000000000000000000000000000000000000000000000000000000808252906001600160a01b038b169063bc197c81906108089033908f908e908e908e908e908e908e90600401612706565b6020604051808303816000875af1158015610827573d6000803e3d6000fd5b505050506040513d601f19601f8201168201806040525081019061084b919061276a565b6001600160e01b03191614610868565b6001600160a01b03891615155b6108a75760405162461bcd60e51b815260206004820152601060248201526f155394d0519157d49150d2541251539560821b60448201526064016105fd565b50505050505050505050565b60608382146109045760405162461bcd60e51b815260206004820152600f60248201527f4c454e4754485f4d49534d41544348000000000000000000000000000000000060448201526064016105fd565b8367ffffffffffffffff81111561091d5761091d612787565b604051908082528060200260200182016040528015610946578160200160208202803683370190505b50905060005b848110156109ed5760008087878481811061096957610969612601565b905060200201602081019061097e919061279d565b6001600160a01b03166001600160a01b0316815260200190815260200160002060008585848181106109b2576109b2612601565b905060200201358152602001908152602001600020548282815181106109da576109da612601565b602090810291909101015260010161094c565b50949350505050565b6000600254841115610a4a5760405162461bcd60e51b815260206004820152601960248201527f48656c696f733a20504149525f444f45534e545f45584953540000000000000060448201526064016105fd565b600084815260046020526040902080546001600160a01b0385811691161480610a82575060018101546001600160a01b038581169116145b610ace5760405162461bcd60e51b815260206004820152601660248201527f48656c696f733a204e4f545f504149525f544f4b454e0000000000000000000060448201526064016105fd565b6001600160a01b038416610ae457349250610af9565b610af96001600160a01b038516333086611c4d565b60028101546040517f43264349000000000000000000000000000000000000000000000000000000008152600481018790526001600160a01b03868116602483015260448201869052909116906343264349906064016020604051808303816000875af1158015610b6e573d6000803e3d6000fd5b505050506040513d601f19601f82011682018060405250810190610b9291906127ba565b60018201549092506001600160a01b0390811690851603610c7d5780546001600160a01b0316610bd457610bcf6001600160a01b03871683611cf9565b610bea565b8054610bea906001600160a01b03168784611d59565b600381018054839190600090610c0a9084906001600160701b03166127d3565b92506101000a8154816001600160701b0302191690836001600160701b031602179055508281600301600e8282829054906101000a90046001600160701b0316610c5491906127fb565b92506101000a8154816001600160701b0302191690836001600160701b03160217905550610d25565b6001810154610c96906001600160a01b03168784611d59565b600381018054849190600090610cb69084906001600160701b03166127fb565b92506101000a8154816001600160701b0302191690836001600160701b031602179055508181600301600e8282829054906101000a90046001600160701b0316610d0091906127d3565b92506101000a8154816001600160701b0302191690836001600160701b031602179055505b60408051868152602081018590529081018390526001600160a01b0380861691908816907fd83a63a0ebf8fb6a344f0e3dc86dfc975e6009f82e455acc6622cc3fd7c5928d9060600160405180910390a350949350505050565b3360008181526001602090815260408083206001600160a01b03871680855290835292819020805460ff191686151590811790915590519081529192917f17307eab39ab6107e8899845ad3d59bd9653f200f220920489ca2b5937696c31910160405180910390a35050565b60608167ffffffffffffffff811115610e0657610e06612787565b604051908082528060200260200182016040528015610e3957816020015b6060815260200190600190039081610e245790505b50905060005b82811015610f315760008030868685818110610e5d57610e5d612601565b9050602002810190610e6f9190612826565b604051610e7d92919061286d565b600060405180830381855af49150503d8060008114610eb8576040519150601f19603f3d011682016040523d82523d6000602084013e610ebd565b606091505b509150915081610f0957604481511015610ed657600080fd5b60048101905080806020019051810190610ef0919061287d565b60405162461bcd60e51b81526004016105fd91906120bd565b80848481518110610f1c57610f1c612601565b60209081029190910101525050600101610e3f565b5092915050565b600080886001600160a01b03168a6001600160a01b031603610f9c5760405162461bcd60e51b815260206004820152601b60248201527f48656c696f733a204944454e544943414c5f414444524553534553000000000060448201526064016105fd565b856001600160a01b03163b600003610ff65760405162461bcd60e51b815260206004820152601760248201527f48656c696f733a20494e56414c49445f5357415050455200000000000000000060448201526064016105fd565b6000806000808c6001600160a01b03168e6001600160a01b03161061101e578c8b8f8e611023565b8d8c8e8d5b935093509350935060056000856001600160a01b03166001600160a01b031681526020019081526020016000206000836001600160a01b03166001600160a01b0316815260200190815260200160002060008b6001600160a01b03166001600160a01b0316815260200190815260200160002060008a60ff168152602001908152602001600020546000146110fa5760405162461bcd60e51b815260206004820152601360248201527f48656c696f733a20504149525f4558495354530000000000000000000000000060448201526064016105fd565b6001600160a01b038416158061110f57503415155b1561114e576001600160a01b0384161561112857600093505b3492506111496001600160a01b03831633306001600160701b038516611c4d565b61118a565b61116c6001600160a01b03851633306001600160701b038716611c4d565b61118a6001600160a01b03831633306001600160701b038516611c4d565b60026000815460010191905081905595508560056000866001600160a01b03166001600160a01b031681526020019081526020016000206000846001600160a01b03166001600160a01b0316815260200190815260200160002060008c6001600160a01b03166001600160a01b0316815260200190815260200160002060008b60ff168152602001908152602001600020819055506040518060c00160405280856001600160a01b03168152602001836001600160a01b031681526020018b6001600160a01b03168152602001846001600160701b03168152602001826001600160701b031681526020018a60ff168152506004600088815260200190815260200160002060008201518160000160006101000a8154816001600160a01b0302191690836001600160a01b0316021790555060208201518160010160006101000a8154816001600160a01b0302191690836001600160a01b0316021790555060408201518160020160006101000a8154816001600160a01b0302191690836001600160a01b0316021790555060608201518160030160006101000a8154816001600160701b0302191690836001600160701b03160217905550608082015181600301600e6101000a8154816001600160701b0302191690836001600160701b0316021790555060a082015181600301601c6101000a81548160ff021916908360ff160217905550905050896001600160a01b031663422f10438785846040518463ffffffff1660e01b81526004016113de939291909283526001600160701b03918216602084015216604082015260600190565b6020604051808303816000875af11580156113fd573d6000803e3d6000fd5b505050506040513d601f19601f8201168201806040525081019061142191906127ba565b94508460036000888152602001908152602001600020819055508e6001600160a01b03167f64b83944e79c3ce8d4c297411de637c3e102d064677aac0c163976ebdcd6f50e878584604051611492939291909283526001600160701b03918216602084015216604082015260600190565b60405180910390a250505050995099975050505050505050565b6000806002548411156115015760405162461bcd60e51b815260206004820152601960248201527f48656c696f733a20504149525f444f45534e545f45584953540000000000000060448201526064016105fd565b600084815260046020819052604091829020600281015492517f9d7de6b300000000000000000000000000000000000000000000000000000000815291820187905260248201869052916001600160a01b031690639d7de6b39060440160408051808303816000875af115801561157c573d6000803e3d6000fd5b505050506040513d601f19601f820116820180604052508101906115a0919061291f565b825491945092506001600160a01b03166115cc576115c76001600160a01b03871684611cf9565b6115e2565b80546115e2906001600160a01b03168785611d59565b60018101546115fb906001600160a01b03168784611d59565b611606338686611dfe565b6003810180548491906000906116269084906001600160701b03166127d3565b92506101000a8154816001600160701b0302191690836001600160701b031602179055508181600301600e8282829054906101000a90046001600160701b031661167091906127d3565b82546001600160701b039182166101009390930a9283029190920219909116179055506000858152600360209081526040918290208054879003905581518781529081018590529081018390526001600160a01b038716907f1dc8bb69df2b8e91fbdcbfcf93d951b3f0000f085a95fe3f7946d6161439245d9060600160405180910390a250935093915050565b336001600160a01b038716148061173857506001600160a01b038616600090815260016020908152604080832033845290915290205460ff165b6117845760405162461bcd60e51b815260206004820152600e60248201527f4e4f545f415554484f52495a454400000000000000000000000000000000000060448201526064016105fd565b6001600160a01b038616600090815260208181526040808320878452909152812080548592906117b590849061262d565b90915550506001600160a01b038516600090815260208181526040808320878452909152812080548592906117eb908490612644565b909155505060408051858152602081018590526001600160a01b03808816929089169133917fc3d58168c5ae7397731d063d5bbf3d657854427343f4c083240f7aacaa2d0f62910160405180910390a46001600160a01b0385163b156118d65760405163f23a6e6160e01b808252906001600160a01b0387169063f23a6e61906118839033908b908a908a908a908a90600401612943565b6020604051808303816000875af11580156118a2573d6000803e3d6000fd5b505050506040513d601f19601f820116820180604052508101906118c6919061276a565b6001600160e01b031916146118e3565b6001600160a01b03851615155b6119225760405162461bcd60e51b815260206004820152601060248201526f155394d0519157d49150d2541251539560821b60448201526064016105fd565b505050505050565b600060025486111561197e5760405162461bcd60e51b815260206004820152601960248201527f48656c696f733a20504149525f444f45534e545f45584953540000000000000060448201526064016105fd565b600086815260046020526040902080546001600160a01b03166119bd5760018101543496506119b8906001600160a01b0316333088611c4d565b6119ee565b80546119d4906001600160a01b0316333089611c4d565b60018101546119ee906001600160a01b0316333088611c4d565b60028101546040517f422f10430000000000000000000000000000000000000000000000000000000081526004810189905260248101889052604481018790526001600160a01b039091169063422f1043906064016020604051808303816000875af1158015611a62573d6000803e3d6000fd5b505050506040513d601f19601f82011682018060405250810190611a8691906127ba565b915081600003611afe5760405162461bcd60e51b815260206004820152602560248201527f48656c696f733a20494e53554646494349454e545f4c49515549444954595f4d60448201527f494e54454400000000000000000000000000000000000000000000000000000060648201526084016105fd565b611b4088888487878080601f016020809104026020016040519081016040528093929190818152602001838380828437600092019190915250611e8292505050565b600381018054879190600090611b609084906001600160701b03166127fb565b92506101000a8154816001600160701b0302191690836001600160701b031602179055508481600301600e8282829054906101000a90046001600160701b0316611baa91906127fb565b92506101000a8154816001600160701b0302191690836001600160701b0316021790555081600360008981526020019081526020016000206000828254611bf19190612644565b909155505060408051888152602081018890529081018690526001600160a01b038916907f64b83944e79c3ce8d4c297411de637c3e102d064677aac0c163976ebdcd6f50e9060600160405180910390a2509695505050505050565b60006040517f23b872dd0000000000000000000000000000000000000000000000000000000081528460048201528360248201528260448201526020600060648360008a5af13d15601f3d1160016000511416171691505080611cf25760405162461bcd60e51b815260206004820152601460248201527f5452414e534645525f46524f4d5f4641494c454400000000000000000000000060448201526064016105fd565b5050505050565b600080600080600085875af1905080611d545760405162461bcd60e51b815260206004820152601360248201527f4554485f5452414e534645525f4641494c45440000000000000000000000000060448201526064016105fd565b505050565b60006040517fa9059cbb000000000000000000000000000000000000000000000000000000008152836004820152826024820152602060006044836000895af13d15601f3d1160016000511416171691505080611df85760405162461bcd60e51b815260206004820152600f60248201527f5452414e534645525f4641494c4544000000000000000000000000000000000060448201526064016105fd565b50505050565b6001600160a01b03831660009081526020818152604080832085845290915281208054839290611e2f90849061262d565b909155505060408051838152602081018390526000916001600160a01b0386169133917fc3d58168c5ae7397731d063d5bbf3d657854427343f4c083240f7aacaa2d0f62910160405180910390a4505050565b6001600160a01b03841660009081526020818152604080832086845290915281208054849290611eb3908490612644565b909155505060408051848152602081018490526001600160a01b0386169160009133917fc3d58168c5ae7397731d063d5bbf3d657854427343f4c083240f7aacaa2d0f62910160405180910390a46001600160a01b0384163b15611f9b5760405163f23a6e6160e01b808252906001600160a01b0386169063f23a6e6190611f48903390600090899089908990600401612988565b6020604051808303816000875af1158015611f67573d6000803e3d6000fd5b505050506040513d601f19601f82011682018060405250810190611f8b919061276a565b6001600160e01b03191614611fa8565b6001600160a01b03841615155b611df85760405162461bcd60e51b815260206004820152601060248201526f155394d0519157d49150d2541251539560821b60448201526064016105fd565b6001600160a01b0381168114611ffc57600080fd5b50565b6000806040838503121561201257600080fd5b823561201d81611fe7565b946020939093013593505050565b6001600160e01b031981168114611ffc57600080fd5b60006020828403121561205357600080fd5b813561205e8161202b565b9392505050565b60005b83811015612080578181015183820152602001612068565b83811115611df85750506000910152565b600081518084526120a9816020860160208601612065565b601f01601f19169290920160200192915050565b60208152600061205e6020830184612091565b6000602082840312156120e257600080fd5b5035919050565b60008083601f8401126120fb57600080fd5b50813567ffffffffffffffff81111561211357600080fd5b6020830191508360208260051b850101111561212e57600080fd5b9250929050565b60008083601f84011261214757600080fd5b50813567ffffffffffffffff81111561215f57600080fd5b60208301915083602082850101111561212e57600080fd5b60008060008060008060008060a0898b03121561219357600080fd5b883561219e81611fe7565b975060208901356121ae81611fe7565b9650604089013567ffffffffffffffff808211156121cb57600080fd5b6121d78c838d016120e9565b909850965060608b01359150808211156121f057600080fd5b6121fc8c838d016120e9565b909650945060808b013591508082111561221557600080fd5b506122228b828c01612135565b999c989b5096995094979396929594505050565b6000806000806040858703121561224c57600080fd5b843567ffffffffffffffff8082111561226457600080fd5b612270888389016120e9565b9096509450602087013591508082111561228957600080fd5b50612296878288016120e9565b95989497509550505050565b6020808252825182820181905260009190848201906040850190845b818110156122da578351835292840192918401916001016122be565b50909695505050505050565b600080600080608085870312156122fc57600080fd5b843561230781611fe7565b935060208501359250604085013561231e81611fe7565b9396929550929360600135925050565b6000806040838503121561234157600080fd5b823561234c81611fe7565b91506020830135801515811461236157600080fd5b809150509250929050565b6000806020838503121561237f57600080fd5b823567ffffffffffffffff81111561239657600080fd5b6123a2858286016120e9565b90969095509350505050565b6000602080830181845280855180835260408601915060408160051b870101925083870160005b8281101561240357603f198886030184526123f1858351612091565b945092850192908501906001016123d5565b5092979650505050505050565b60008060008060008060008060006101008a8c03121561242f57600080fd5b893561243a81611fe7565b985060208a013561244a81611fe7565b975060408a013561245a81611fe7565b965060608a0135955060808a0135945060a08a013561247881611fe7565b935060c08a013560ff8116811461248e57600080fd5b925060e08a013567ffffffffffffffff8111156124aa57600080fd5b6124b68c828d01612135565b915080935050809150509295985092959850929598565b6000806000606084860312156124e257600080fd5b83356124ed81611fe7565b95602085013595506040909401359392505050565b6000806040838503121561251557600080fd5b823561252081611fe7565b9150602083013561236181611fe7565b60008060008060008060a0878903121561254957600080fd5b863561255481611fe7565b9550602087013561256481611fe7565b94506040870135935060608701359250608087013567ffffffffffffffff81111561258e57600080fd5b61259a89828a01612135565b979a9699509497509295939492505050565b60008060008060008060a087890312156125c557600080fd5b86356125d081611fe7565b9550602087013594506040870135935060608701359250608087013567ffffffffffffffff81111561258e57600080fd5b634e487b7160e01b600052603260045260246000fd5b634e487b7160e01b600052601160045260246000fd5b60008282101561263f5761263f612617565b500390565b6000821982111561265757612657612617565b500190565b81835260007f07ffffffffffffffffffffffffffffffffffffffffffffffffffffffffffffff83111561268e57600080fd5b8260051b8083602087013760009401602001938452509192915050565b6040815260006126bf60408301868861265c565b82810360208401526126d281858761265c565b979650505050505050565b81835281816020850137506000828201602090810191909152601f909101601f19169091010190565b60006001600160a01b03808b168352808a1660208401525060a0604083015261273360a08301888a61265c565b828103606084015261274681878961265c565b9050828103608084015261275b8185876126dd565b9b9a5050505050505050505050565b60006020828403121561277c57600080fd5b815161205e8161202b565b634e487b7160e01b600052604160045260246000fd5b6000602082840312156127af57600080fd5b813561205e81611fe7565b6000602082840312156127cc57600080fd5b5051919050565b60006001600160701b03838116908316818110156127f3576127f3612617565b039392505050565b60006001600160701b0380831681851680830382111561281d5761281d612617565b01949350505050565b6000808335601e1984360301811261283d57600080fd5b83018035915067ffffffffffffffff82111561285857600080fd5b60200191503681900382131561212e57600080fd5b8183823760009101908152919050565b60006020828403121561288f57600080fd5b815167ffffffffffffffff808211156128a757600080fd5b818401915084601f8301126128bb57600080fd5b8151818111156128cd576128cd612787565b604051601f8201601f19908116603f011681019083821181831017156128f5576128f5612787565b8160405282815287602084870101111561290e57600080fd5b6126d2836020830160208801612065565b6000806040838503121561293257600080fd5b505080516020909101519092909150565b60006001600160a01b03808916835280881660208401525085604083015284606083015260a0608083015261297c60a0830184866126dd565b98975050505050505050565b60006001600160a01b03808816835280871660208401525084604083015283606083015260a060808301526126d260a083018461209156fea2646970667358221220cd3efe5cc7b4ad229aa762fe12f2848d8fde23c43275273a454d9f464fb43d9e64736f6c634300080d0033",
    "linkReferences": {}
  }
}