{
  "abi": [
    {
      "inputs": [],
      "name": "ArrayParity",
      "type": "error"
    },
    {
      "inputs": [],
      "name": "ETHtransferFailed",
      "type": "error"
    },
    {
      "inputs": [],
      "name": "IdenticalTokens",
      "type": "error"
    },
    {
      "inputs": [],
      "name": "InvalidOperator",
      "type": "error"
    },
    {
      "inputs": [],
      "name": "InvalidReceiver",
      "type": "error"
    },
    {
      "inputs": [],
      "name": "InvalidSig",
      "type": "error"
    },
    {
      "inputs": [],
      "name": "NoLiquidity",
      "type": "error"
    },
    {
      "inputs": [],
      "name": "NoPair",
      "type": "error"
    },
    {
      "inputs": [],
      "name": "NoSwapper",
      "type": "error"
    },
    {
      "inputs": [],
      "name": "NotPairToken",
      "type": "error"
    },
    {
      "inputs": [],
      "name": "PairExists",
      "type": "error"
    },
    {
      "inputs": [],
      "name": "SigExpired",
      "type": "error"
    },
    {
      "inputs": [],
      "name": "TransferFailed",
      "type": "error"
    },
    {
      "inputs": [],
      "name": "TransferFromFailed",
      "type": "error"
    },
    {
      "anonymous": false,
      "inputs": [
        {
          "indexed": true,
          "internalType": "address",
          "name": "owner",
          "type": "address"
        },
        {
          "indexed": true,
          "internalType": "address",
          "name": "operator",
          "type": "address"
        },
        {
          "indexed": false,
          "internalType": "bool",
          "name": "approved",
          "type": "bool"
        }
      ],
      "name": "ApprovalForAll",
      "type": "event"
    },
    {
      "anonymous": false,
      "inputs": [
        {
          "indexed": true,
          "internalType": "address",
          "name": "to",
          "type": "address"
        },
        {
          "indexed": false,
          "internalType": "uint256",
          "name": "id",
          "type": "uint256"
        },
        {
          "indexed": false,
          "internalType": "uint256",
          "name": "token0amount",
          "type": "uint256"
        },
        {
          "indexed": false,
          "internalType": "uint256",
          "name": "token1amount",
          "type": "uint256"
        }
      ],
      "name": "LiquidityAdded",
      "type": "event"
    },
    {
      "anonymous": false,
      "inputs": [
        {
          "indexed": true,
          "internalType": "address",
          "name": "from",
          "type": "address"
        },
        {
          "indexed": false,
          "internalType": "uint256",
          "name": "id",
          "type": "uint256"
        },
        {
          "indexed": false,
          "internalType": "uint256",
          "name": "amount0out",
          "type": "uint256"
        },
        {
          "indexed": false,
          "internalType": "uint256",
          "name": "amount1out",
          "type": "uint256"
        }
      ],
      "name": "LiquidityRemoved",
      "type": "event"
    },
    {
      "anonymous": false,
      "inputs": [
        {
          "indexed": true,
          "internalType": "address",
          "name": "to",
          "type": "address"
        },
        {
          "indexed": false,
          "internalType": "uint256",
          "name": "id",
          "type": "uint256"
        },
        {
          "indexed": true,
          "internalType": "address",
          "name": "token0",
          "type": "address"
        },
        {
          "indexed": true,
          "internalType": "address",
          "name": "token1",
          "type": "address"
        }
      ],
      "name": "PairCreated",
      "type": "event"
    },
    {
      "anonymous": false,
      "inputs": [
        {
          "indexed": true,
          "internalType": "address",
          "name": "to",
          "type": "address"
        },
        {
          "indexed": false,
          "internalType": "uint256",
          "name": "id",
          "type": "uint256"
        },
        {
          "indexed": true,
          "internalType": "address",
          "name": "tokenIn",
          "type": "address"
        },
        {
          "indexed": false,
          "internalType": "uint256",
          "name": "amountIn",
          "type": "uint256"
        },
        {
          "indexed": false,
          "internalType": "uint256",
          "name": "amountOut",
          "type": "uint256"
        }
      ],
      "name": "Swapped",
      "type": "event"
    },
    {
      "anonymous": false,
      "inputs": [
        {
          "indexed": true,
          "internalType": "address",
          "name": "operator",
          "type": "address"
        },
        {
          "indexed": true,
          "internalType": "address",
          "name": "from",
          "type": "address"
        },
        {
          "indexed": true,
          "internalType": "address",
          "name": "to",
          "type": "address"
        },
        {
          "indexed": false,
          "internalType": "uint256[]",
          "name": "ids",
          "type": "uint256[]"
        },
        {
          "indexed": false,
          "internalType": "uint256[]",
          "name": "amounts",
          "type": "uint256[]"
        }
      ],
      "name": "TransferBatch",
      "type": "event"
    },
    {
      "anonymous": false,
      "inputs": [
        {
          "indexed": true,
          "internalType": "address",
          "name": "operator",
          "type": "address"
        },
        {
          "indexed": true,
          "internalType": "address",
          "name": "from",
          "type": "address"
        },
        {
          "indexed": true,
          "internalType": "address",
          "name": "to",
          "type": "address"
        },
        {
          "indexed": false,
          "internalType": "uint256",
          "name": "id",
          "type": "uint256"
        },
        {
          "indexed": false,
          "internalType": "uint256",
          "name": "amount",
          "type": "uint256"
        }
      ],
      "name": "TransferSingle",
      "type": "event"
    },
    {
      "inputs": [],
      "name": "DOMAIN_SEPARATOR",
      "outputs": [
        {
          "internalType": "bytes32",
          "name": "",
          "type": "bytes32"
        }
      ],
      "stateMutability": "view",
      "type": "function"
    },
    {
      "inputs": [
        {
          "internalType": "address",
          "name": "to",
          "type": "address"
        },
        {
          "internalType": "uint256",
          "name": "id",
          "type": "uint256"
        },
        {
          "internalType": "uint256",
          "name": "token0amount",
          "type": "uint256"
        },
        {
          "internalType": "uint256",
          "name": "token1amount",
          "type": "uint256"
        },
        {
          "internalType": "bytes",
          "name": "data",
          "type": "bytes"
        }
      ],
      "name": "addLiquidity",
      "outputs": [
        {
          "internalType": "uint256",
          "name": "liq",
          "type": "uint256"
        }
      ],
      "stateMutability": "payable",
      "type": "function"
    },
    {
      "inputs": [
        {
          "internalType": "address",
          "name": "",
          "type": "address"
        },
        {
          "internalType": "uint256",
          "name": "",
          "type": "uint256"
        }
      ],
      "name": "balanceOf",
      "outputs": [
        {
          "internalType": "uint256",
          "name": "",
          "type": "uint256"
        }
      ],
      "stateMutability": "view",
      "type": "function"
    },
    {
      "inputs": [
        {
          "internalType": "address[]",
          "name": "owners",
          "type": "address[]"
        },
        {
          "internalType": "uint256[]",
          "name": "ids",
          "type": "uint256[]"
        }
      ],
      "name": "balanceOfBatch",
      "outputs": [
        {
          "internalType": "uint256[]",
          "name": "balances",
          "type": "uint256[]"
        }
      ],
      "stateMutability": "view",
      "type": "function"
    },
    {
      "inputs": [],
      "name": "baseURI",
      "outputs": [
        {
          "internalType": "string",
          "name": "",
          "type": "string"
        }
      ],
      "stateMutability": "view",
      "type": "function"
    },
    {
      "inputs": [
        {
          "internalType": "address",
          "name": "to",
          "type": "address"
        },
        {
          "internalType": "address",
          "name": "tokenA",
          "type": "address"
        },
        {
          "internalType": "address",
          "name": "tokenB",
          "type": "address"
        },
        {
          "internalType": "uint256",
          "name": "tokenAamount",
          "type": "uint256"
        },
        {
          "internalType": "uint256",
          "name": "tokenBamount",
          "type": "uint256"
        },
        {
          "internalType": "contract IPair",
          "name": "swapper",
          "type": "address"
        },
        {
          "internalType": "uint8",
          "name": "fee",
          "type": "uint8"
        },
        {
          "internalType": "bytes",
          "name": "data",
          "type": "bytes"
        }
      ],
      "name": "createPair",
      "outputs": [
        {
          "internalType": "uint256",
          "name": "id",
          "type": "uint256"
        },
        {
          "internalType": "uint256",
          "name": "liq",
          "type": "uint256"
        }
      ],
      "stateMutability": "payable",
      "type": "function"
    },
    {
      "inputs": [
        {
          "internalType": "address",
          "name": "",
          "type": "address"
        },
        {
          "internalType": "address",
          "name": "",
          "type": "address"
        }
      ],
      "name": "isApprovedForAll",
      "outputs": [
        {
          "internalType": "bool",
          "name": "",
          "type": "bool"
        }
      ],
      "stateMutability": "view",
      "type": "function"
    },
    {
      "inputs": [
        {
          "internalType": "bytes[]",
          "name": "data",
          "type": "bytes[]"
        }
      ],
      "name": "multicall",
      "outputs": [
        {
          "internalType": "bytes[]",
          "name": "results",
          "type": "bytes[]"
        }
      ],
      "stateMutability": "nonpayable",
      "type": "function"
    },
    {
      "inputs": [],
      "name": "name",
      "outputs": [
        {
          "internalType": "string",
          "name": "",
          "type": "string"
        }
      ],
      "stateMutability": "view",
      "type": "function"
    },
    {
      "inputs": [
        {
          "internalType": "address",
          "name": "",
          "type": "address"
        }
      ],
      "name": "nonces",
      "outputs": [
        {
          "internalType": "uint256",
          "name": "",
          "type": "uint256"
        }
      ],
      "stateMutability": "view",
      "type": "function"
    },
    {
      "inputs": [
        {
          "internalType": "uint256",
          "name": "",
          "type": "uint256"
        }
      ],
      "name": "pairs",
      "outputs": [
        {
          "internalType": "address",
          "name": "token0",
          "type": "address"
        },
        {
          "internalType": "address",
          "name": "token1",
          "type": "address"
        },
        {
          "internalType": "contract IPair",
          "name": "swapper",
          "type": "address"
        },
        {
          "internalType": "uint112",
          "name": "reserve0",
          "type": "uint112"
        },
        {
          "internalType": "uint112",
          "name": "reserve1",
          "type": "uint112"
        },
        {
          "internalType": "uint8",
          "name": "fee",
          "type": "uint8"
        }
      ],
      "stateMutability": "view",
      "type": "function"
    },
    {
      "inputs": [
        {
          "internalType": "address",
          "name": "owner",
          "type": "address"
        },
        {
          "internalType": "address",
          "name": "operator",
          "type": "address"
        },
        {
          "internalType": "bool",
          "name": "approved",
          "type": "bool"
        },
        {
          "internalType": "uint256",
          "name": "deadline",
          "type": "uint256"
        },
        {
          "internalType": "uint8",
          "name": "v",
          "type": "uint8"
        },
        {
          "internalType": "bytes32",
          "name": "r",
          "type": "bytes32"
        },
        {
          "internalType": "bytes32",
          "name": "s",
          "type": "bytes32"
        }
      ],
      "name": "permit",
      "outputs": [],
      "stateMutability": "payable",
      "type": "function"
    },
    {
      "inputs": [
        {
          "internalType": "address",
          "name": "to",
          "type": "address"
        },
        {
          "internalType": "uint256",
          "name": "id",
          "type": "uint256"
        },
        {
          "internalType": "uint256",
          "name": "liq",
          "type": "uint256"
        }
      ],
      "name": "removeLiquidity",
      "outputs": [
        {
          "internalType": "uint256",
          "name": "amount0out",
          "type": "uint256"
        },
        {
          "internalType": "uint256",
          "name": "amount1out",
          "type": "uint256"
        }
      ],
      "stateMutability": "payable",
      "type": "function"
    },
    {
      "inputs": [
        {
          "internalType": "address",
          "name": "from",
          "type": "address"
        },
        {
          "internalType": "address",
          "name": "to",
          "type": "address"
        },
        {
          "internalType": "uint256[]",
          "name": "ids",
          "type": "uint256[]"
        },
        {
          "internalType": "uint256[]",
          "name": "amounts",
          "type": "uint256[]"
        },
        {
          "internalType": "bytes",
          "name": "data",
          "type": "bytes"
        }
      ],
      "name": "safeBatchTransferFrom",
      "outputs": [],
      "stateMutability": "payable",
      "type": "function"
    },
    {
      "inputs": [
        {
          "internalType": "address",
          "name": "from",
          "type": "address"
        },
        {
          "internalType": "address",
          "name": "to",
          "type": "address"
        },
        {
          "internalType": "uint256",
          "name": "id",
          "type": "uint256"
        },
        {
          "internalType": "uint256",
          "name": "amount",
          "type": "uint256"
        },
        {
          "internalType": "bytes",
          "name": "data",
          "type": "bytes"
        }
      ],
      "name": "safeTransferFrom",
      "outputs": [],
      "stateMutability": "payable",
      "type": "function"
    },
    {
      "inputs": [
        {
          "internalType": "address",
          "name": "operator",
          "type": "address"
        },
        {
          "internalType": "bool",
          "name": "approved",
          "type": "bool"
        }
      ],
      "name": "setApprovalForAll",
      "outputs": [],
      "stateMutability": "payable",
      "type": "function"
    },
    {
      "inputs": [
        {
          "internalType": "bytes4",
          "name": "interfaceId",
          "type": "bytes4"
        }
      ],
      "name": "supportsInterface",
      "outputs": [
        {
          "internalType": "bool",
          "name": "",
          "type": "bool"
        }
      ],
      "stateMutability": "pure",
      "type": "function"
    },
    {
      "inputs": [
        {
          "internalType": "address",
          "name": "to",
          "type": "address"
        },
        {
          "internalType": "uint256",
          "name": "id",
          "type": "uint256"
        },
        {
          "internalType": "address",
          "name": "tokenIn",
          "type": "address"
        },
        {
          "internalType": "uint256",
          "name": "amountIn",
          "type": "uint256"
        }
      ],
      "name": "swap",
      "outputs": [
        {
          "internalType": "uint256",
          "name": "amountOut",
          "type": "uint256"
        }
      ],
      "stateMutability": "payable",
      "type": "function"
    },
    {
      "inputs": [],
      "name": "symbol",
      "outputs": [
        {
          "internalType": "string",
          "name": "",
          "type": "string"
        }
      ],
      "stateMutability": "view",
      "type": "function"
    },
    {
      "inputs": [],
      "name": "totalSupply",
      "outputs": [
        {
          "internalType": "uint256",
          "name": "",
          "type": "uint256"
        }
      ],
      "stateMutability": "view",
      "type": "function"
    },
    {
      "inputs": [
        {
          "internalType": "uint256",
          "name": "",
          "type": "uint256"
        }
      ],
      "name": "totalSupplyForId",
      "outputs": [
        {
          "internalType": "uint256",
          "name": "",
          "type": "uint256"
        }
      ],
      "stateMutability": "view",
      "type": "function"
    },
    {
      "inputs": [
        {
          "internalType": "uint256",
          "name": "",
          "type": "uint256"
        }
      ],
      "name": "uri",
      "outputs": [
        {
          "internalType": "string",
          "name": "",
          "type": "string"
        }
      ],
      "stateMutability": "view",
      "type": "function"
    }
  ],
  "bytecode": {
    "object": "0x610100604052600b60c08190526a282620a1a2a427a62222a960a91b60e09081526200002f9160039190620000fb565b503480156200003d57600080fd5b50466080526200004c62000055565b60a05262000264565b604080518082018252600681526548656c696f7360d01b6020918201528151808301835260018152603160f81b818301529151600092620000e0927f8b73c3c69bb8fe3d512ecc4cf759cc79239f7b179b0ffacaa9a75d522b39400f927f7d584df37c9fc037eb4817b96e32f00682ba9959050824adee0d12e44eddf28892914691309101620001a1565b60405160208183030381529060405280519060200120905090565b828054620001099062000228565b90600052602060002090601f0160209004810192826200012d576000855562000178565b82601f106200014857805160ff191683800117855562000178565b8280016001018555821562000178579182015b82811115620001785782518255916020019190600101906200015b565b50620001869291506200018a565b5090565b5b808211156200018657600081556001016200018b565b85815260006020868184015260a0604084015285518060a085015260005b81811015620001dd5787810183015185820160c001528201620001bf565b81811115620001f057600060c083870101525b5060608401869052601f01601f1916830160c00191506200021e905060808301846001600160a01b03169052565b9695505050505050565b600181811c908216806200023d57607f821691505b6020821081036200025e57634e487b7160e01b600052602260045260246000fd5b50919050565b60805160a051612d146200028a60003960006109440152600061090f0152612d146000f3fe6080604052600436106101745760003560e01c806395d89b41116100cb578063e2965aed1161007f578063f242432a11610059578063f242432a14610521578063f3b39b6c14610534578063f51cc7dd1461054757600080fd5b8063e2965aed146104ab578063e38192e3146104d3578063e985e9c5146104e657600080fd5b8063ac9650d8116100b0578063ac9650d81461036e578063af5149371461039b578063b91ac788146103c857600080fd5b806395d89b4114610312578063a22cb4651461035b57600080fd5b80632eb2c2d61161012d5780636c0360eb116101075780636c0360eb146102bd5780637ecebe00146102d25780638a0ccd56146102ff57600080fd5b80632eb2c2d6146102665780633644e5151461027b5780634e1273f41461029057600080fd5b806306fdde031161015e57806306fdde03146101f15780630e89341c1461023057806318160ddd1461025057600080fd5b8062fdd58e1461017957806301ffc9a7146101c1575b600080fd5b34801561018557600080fd5b506101ae610194366004612246565b600060208181529281526040808220909352908152205481565b6040519081526020015b60405180910390f35b3480156101cd57600080fd5b506101e16101dc366004612288565b61055a565b60405190151581526020016101b8565b3480156101fd57600080fd5b506102236040518060400160405280600681526020016548656c696f7360d01b81525081565b6040516101b89190612304565b34801561023c57600080fd5b5061022361024b366004612317565b6105f7565b34801561025c57600080fd5b506101ae60045481565b6102796102743660046123be565b61068b565b005b34801561028757600080fd5b506101ae61090b565b34801561029c57600080fd5b506102b06102ab36600461247d565b610966565b6040516101b891906124e9565b3480156102c957600080fd5b50610223610a7c565b3480156102de57600080fd5b506101ae6102ed36600461252d565b60026020526000908152604090205481565b6101ae61030d36600461254a565b610b0a565b34801561031e57600080fd5b506102236040518060400160405280600481526020017f48454c490000000000000000000000000000000000000000000000000000000081525081565b6102796103693660046125a7565b610e52565b34801561037a57600080fd5b5061038e6103893660046125dc565b610ebe565b6040516101b8919061261e565b3480156103a757600080fd5b506101ae6103b6366004612317565b60056020526000908152604090205481565b3480156103d457600080fd5b5061045f6103e3366004612317565b60066020526000908152604090208054600182015460028301546003909301546001600160a01b039283169391831692909116906001600160701b03808216916e0100000000000000000000000000008104909116907c0100000000000000000000000000000000000000000000000000000000900460ff1686565b604080516001600160a01b039788168152958716602087015293909516928401929092526001600160701b03908116606084015216608082015260ff90911660a082015260c0016101b8565b6104be6104b9366004612691565b61102e565b604080519283526020830191909152016101b8565b6104be6104e1366004612746565b61156d565b3480156104f257600080fd5b506101e161050136600461277b565b600160209081526000928352604080842090915290825290205460ff1681565b61027961052f3660046127b4565b611790565b6101ae610542366004612830565b611955565b610279610555366004612885565b611bd8565b60007f01ffc9a7000000000000000000000000000000000000000000000000000000006001600160e01b0319831614806105bd57507fd9b67a26000000000000000000000000000000000000000000000000000000006001600160e01b03198316145b806105f157507f0e89341c000000000000000000000000000000000000000000000000000000006001600160e01b03198316145b92915050565b606060038054610606906128fa565b80601f0160208091040260200160405190810160405280929190818152602001828054610632906128fa565b801561067f5780601f106106545761010080835404028352916020019161067f565b820191906000526020600020905b81548152906001019060200180831161066257829003601f168201915b50505050509050919050565b848381146106ac57604051630bb9738760e31b815260040160405180910390fd5b336001600160a01b038a16148015906106e957506001600160a01b038916600090815260016020908152604080832033845290915290205460ff16155b156107075760405163ccea9e6f60e01b815260040160405180910390fd5b60008060005b838110156107b35789898281811061072757610727612934565b90506020020135925087878281811061074257610742612934565b6001600160a01b038f166000908152602081815260408083208984528252822080549390910294909401359550859392509061077f908490612960565b90915550506001600160a01b038b16600090815260208181526040808320868452909152902080548301905560010161070d565b50896001600160a01b03168b6001600160a01b0316336001600160a01b03167f4a39dc06d4c0dbc64b70af90fd698a233a518aa5d07e595d983b8c0526c8f7fb8c8c8c8c60405161080794939291906129c6565b60405180910390a46001600160a01b038a163b156108d45763bc197c8160e01b7bffffffffffffffffffffffffffffffffffffffffffffffffffffffff19168a6001600160a01b031663bc197c81338e8d8d8d8d8d8d6040518963ffffffff1660e01b8152600401610880989796959493929190612a21565b6020604051808303816000875af115801561089f573d6000803e3d6000fd5b505050506040513d601f19601f820116820180604052508101906108c39190612a85565b6001600160e01b03191614156108e0565b6001600160a01b038a16155b156108fe57604051631e4ec46b60e01b815260040160405180910390fd5b5050505050505050505050565b60007f000000000000000000000000000000000000000000000000000000000000000046146109415761093c611e55565b905090565b507f000000000000000000000000000000000000000000000000000000000000000090565b60608382811461098957604051630bb9738760e31b815260040160405180910390fd5b8067ffffffffffffffff8111156109a2576109a2612aa2565b6040519080825280602002602001820160405280156109cb578160200160208202803683370190505b50915060005b81811015610a72576000808888848181106109ee576109ee612934565b9050602002016020810190610a03919061252d565b6001600160a01b03166001600160a01b031681526020019081526020016000206000868684818110610a3757610a37612934565b90506020020135815260200190815260200160002054838281518110610a5f57610a5f612934565b60209081029190910101526001016109d1565b5050949350505050565b60038054610a89906128fa565b80601f0160208091040260200160405190810160405280929190818152602001828054610ab5906128fa565b8015610b025780601f10610ad757610100808354040283529160200191610b02565b820191906000526020600020905b815481529060010190602001808311610ae557829003601f168201915b505050505081565b6000600454841115610b2f57604051631830f95560e11b815260040160405180910390fd5b600084815260066020526040902080546001600160a01b03858116911614801590610b6a575060018101546001600160a01b03858116911614155b15610ba1576040517f3172a7f700000000000000000000000000000000000000000000000000000000815260040160405180910390fd5b6001600160a01b038416610bb757349250610bcc565b610bcc6001600160a01b038516333086611f15565b60028101546040517f43264349000000000000000000000000000000000000000000000000000000008152600481018790526001600160a01b03868116602483015260448201869052909116906343264349906064016020604051808303816000875af1158015610c41573d6000803e3d6000fd5b505050506040513d601f19601f82011682018060405250810190610c659190612ab8565b60018201549092506001600160a01b0390811690851603610d505780546001600160a01b0316610ca757610ca26001600160a01b03871683611fab565b610cbd565b8054610cbd906001600160a01b03168784611ff5565b600381018054839190600090610cdd9084906001600160701b0316612ad1565b92506101000a8154816001600160701b0302191690836001600160701b031602179055508281600301600e8282829054906101000a90046001600160701b0316610d279190612af9565b92506101000a8154816001600160701b0302191690836001600160701b03160217905550610df8565b6001810154610d69906001600160a01b03168784611ff5565b600381018054849190600090610d899084906001600160701b0316612af9565b92506101000a8154816001600160701b0302191690836001600160701b031602179055508181600301600e8282829054906101000a90046001600160701b0316610dd39190612ad1565b92506101000a8154816001600160701b0302191690836001600160701b031602179055505b60408051868152602081018590529081018390526001600160a01b0380861691908816907fd83a63a0ebf8fb6a344f0e3dc86dfc975e6009f82e455acc6622cc3fd7c5928d9060600160405180910390a350949350505050565b3360008181526001602090815260408083206001600160a01b03871680855290835292819020805460ff191686151590811790915590519081529192917f17307eab39ab6107e8899845ad3d59bd9653f200f220920489ca2b5937696c31910160405180910390a35050565b60608167ffffffffffffffff811115610ed957610ed9612aa2565b604051908082528060200260200182016040528015610f0c57816020015b6060815260200190600190039081610ef75790505b50905060005b828110156110275760008030868685818110610f3057610f30612934565b9050602002810190610f429190612b24565b604051610f50929190612b6b565b600060405180830381855af49150503d8060008114610f8b576040519150601f19603f3d011682016040523d82523d6000602084013e610f90565b606091505b509150915081610fff57604481511015610fa957600080fd5b60048101905080806020019051810190610fc39190612b7b565b6040517f08c379a0000000000000000000000000000000000000000000000000000000008152600401610ff69190612304565b60405180910390fd5b8084848151811061101257611012612934565b60209081029190910101525050600101610f12565b5092915050565b600080886001600160a01b03168a6001600160a01b03160361107c576040517f5c6d7b7300000000000000000000000000000000000000000000000000000000815260040160405180910390fd5b856001600160a01b03163b6000036110c0576040517f24fe885500000000000000000000000000000000000000000000000000000000815260040160405180910390fd5b6000806000808c6001600160a01b03168e6001600160a01b0316106110e8578c8b8f8e6110ed565b8d8c8e8d5b935093509350935060076000856001600160a01b03166001600160a01b031681526020019081526020016000206000836001600160a01b03166001600160a01b0316815260200190815260200160002060008b6001600160a01b03166001600160a01b0316815260200190815260200160002060008a60ff168152602001908152602001600020546000146111ae576040517f3d77e89100000000000000000000000000000000000000000000000000000000815260040160405180910390fd5b6001600160a01b03841615806111c357503415155b15611202576001600160a01b038416156111dc57600093505b3492506111fd6001600160a01b03831633306001600160701b038516611f15565b61123e565b6112206001600160a01b03851633306001600160701b038716611f15565b61123e6001600160a01b03831633306001600160701b038516611f15565b60046000815460010191905081905595508560076000866001600160a01b03166001600160a01b031681526020019081526020016000206000846001600160a01b03166001600160a01b0316815260200190815260200160002060008c6001600160a01b03166001600160a01b0316815260200190815260200160002060008b60ff168152602001908152602001600020819055506040518060c00160405280856001600160a01b03168152602001836001600160a01b031681526020018b6001600160a01b03168152602001846001600160701b03168152602001826001600160701b031681526020018a60ff168152506006600088815260200190815260200160002060008201518160000160006101000a8154816001600160a01b0302191690836001600160a01b0316021790555060208201518160010160006101000a8154816001600160a01b0302191690836001600160a01b0316021790555060408201518160020160006101000a8154816001600160a01b0302191690836001600160a01b0316021790555060608201518160030160006101000a8154816001600160701b0302191690836001600160701b03160217905550608082015181600301600e6101000a8154816001600160701b0302191690836001600160701b0316021790555060a082015181600301601c6101000a81548160ff021916908360ff160217905550905050896001600160a01b031663422f10438785846040518463ffffffff1660e01b8152600401611492939291909283526001600160701b03918216602084015216604082015260600190565b6020604051808303816000875af11580156114b1573d6000803e3d6000fd5b505050506040513d601f19601f820116820180604052508101906114d59190612ab8565b94506114e48f87878b8b612084565b8460056000888152602001908152602001600020819055508e6001600160a01b03167f64b83944e79c3ce8d4c297411de637c3e102d064677aac0c163976ebdcd6f50e878584604051611553939291909283526001600160701b03918216602084015216604082015260600190565b60405180910390a250505050995099975050505050505050565b60008060045484111561159357604051631830f95560e11b815260040160405180910390fd5b60008481526006602052604090819020600281015491517f9d7de6b3000000000000000000000000000000000000000000000000000000008152600481018790526024810186905290916001600160a01b031690639d7de6b39060440160408051808303816000875af115801561160e573d6000803e3d6000fd5b505050506040513d601f19601f820116820180604052508101906116329190612c1d565b825491945092506001600160a01b031661165e576116596001600160a01b03871684611fab565b611674565b8054611674906001600160a01b03168785611ff5565b600181015461168d906001600160a01b03168784611ff5565b6116983386866121aa565b6003810180548491906000906116b89084906001600160701b0316612ad1565b92506101000a8154816001600160701b0302191690836001600160701b031602179055508181600301600e8282829054906101000a90046001600160701b03166117029190612ad1565b82546001600160701b039182166101009390930a9283029190920219909116179055506000858152600560209081526040918290208054879003905581518781529081018590529081018390526001600160a01b038716907f1dc8bb69df2b8e91fbdcbfcf93d951b3f0000f085a95fe3f7946d6161439245d9060600160405180910390a250935093915050565b336001600160a01b038716148015906117cd57506001600160a01b038616600090815260016020908152604080832033845290915290205460ff16155b156117eb5760405163ccea9e6f60e01b815260040160405180910390fd5b6001600160a01b0386166000908152602081815260408083208784529091528120805485929061181c908490612960565b90915550506001600160a01b038581166000818152602081815260408083208984528252918290208054880190558151888152908101879052919289169133917fc3d58168c5ae7397731d063d5bbf3d657854427343f4c083240f7aacaa2d0f62910160405180910390a46001600160a01b0385163b156119235760405163f23a6e6160e01b808252906001600160a01b0387169063f23a6e61906118cf9033908b908a908a908a908a90600401612c41565b6020604051808303816000875af11580156118ee573d6000803e3d6000fd5b505050506040513d601f19601f820116820180604052508101906119129190612a85565b6001600160e01b031916141561192f565b6001600160a01b038516155b1561194d57604051631e4ec46b60e01b815260040160405180910390fd5b505050505050565b600060045486111561197a57604051631830f95560e11b815260040160405180910390fd5b600086815260066020526040902080546001600160a01b03166119b95760018101543496506119b4906001600160a01b0316333088611f15565b6119ea565b80546119d0906001600160a01b0316333089611f15565b60018101546119ea906001600160a01b0316333088611f15565b60028101546040517f422f10430000000000000000000000000000000000000000000000000000000081526004810189905260248101889052604481018790526001600160a01b039091169063422f1043906064016020604051808303816000875af1158015611a5e573d6000803e3d6000fd5b505050506040513d601f19601f82011682018060405250810190611a829190612ab8565b915081600003611abe576040517fc301e07e00000000000000000000000000000000000000000000000000000000815260040160405180910390fd5b611acb8888848787612084565b600381018054879190600090611aeb9084906001600160701b0316612af9565b92506101000a8154816001600160701b0302191690836001600160701b031602179055508481600301600e8282829054906101000a90046001600160701b0316611b359190612af9565b92506101000a8154816001600160701b0302191690836001600160701b0316021790555081600560008981526020019081526020016000206000828254611b7c9190612c86565b909155505060408051888152602081018890529081018690526001600160a01b038916907f64b83944e79c3ce8d4c297411de637c3e102d064677aac0c163976ebdcd6f50e9060600160405180910390a2509695505050505050565b83421115611c12576040517f3ba234a300000000000000000000000000000000000000000000000000000000815260040160405180910390fd5b60006001611c1e61090b565b6001600160a01b038a811660008181526002602090815260409182902080546001019081905582517f7bf72c3e57bc00556754c7454ead7d72d1c0e263909e7c643fbc0d1e0f3c3e748184015280840194909452938d1660608401528b1515608084015260a083019390935260c08083018b90528151808403909101815260e0830190915280519201919091207f19010000000000000000000000000000000000000000000000000000000000006101008301526101028201929092526101228101919091526101420160408051601f198184030181528282528051602091820120600084529083018083525260ff871690820152606081018590526080810184905260a0016020604051602081039080840390855afa158015611d46573d6000803e3d6000fd5b505050602060405103519050876001600160a01b0316816001600160a01b031614158015611d9a57506001600160a01b0380891660009081526001602090815260408083209385168352929052205460ff16155b80611dac57506001600160a01b038116155b15611de3576040517fc90c66b500000000000000000000000000000000000000000000000000000000815260040160405180910390fd5b506001600160a01b038781166000818152600160209081526040808320948b1680845294825291829020805460ff19168a151590811790915591519182527f17307eab39ab6107e8899845ad3d59bd9653f200f220920489ca2b5937696c31910160405180910390a350505050505050565b604080518082018252600681526548656c696f7360d01b60209182015281518083018352600181527f3100000000000000000000000000000000000000000000000000000000000000818301529151600092611efa927f8b73c3c69bb8fe3d512ecc4cf759cc79239f7b179b0ffacaa9a75d522b39400f927f7d584df37c9fc037eb4817b96e32f00682ba9959050824adee0d12e44eddf28892914691309101612c9e565b60405160208183030381529060405280519060200120905090565b60006040517f23b872dd0000000000000000000000000000000000000000000000000000000081528460048201528360248201528260448201526020600060648360008a5af13d15601f3d1160016000511416171691505080611fa4576040517f7939f42400000000000000000000000000000000000000000000000000000000815260040160405180910390fd5b5050505050565b600080600080600085875af1905080611ff0576040517f23c133f200000000000000000000000000000000000000000000000000000000815260040160405180910390fd5b505050565b60006040517fa9059cbb000000000000000000000000000000000000000000000000000000008152836004820152826024820152602060006044836000895af13d15601f3d116001600051141617169150508061207e576040517f90b8ec1800000000000000000000000000000000000000000000000000000000815260040160405180910390fd5b50505050565b6001600160a01b0385166000818152602081815260408083208884528252808320805488019055805188815291820187905233917fc3d58168c5ae7397731d063d5bbf3d657854427343f4c083240f7aacaa2d0f62910160405180910390a46001600160a01b0385163b156121805760405163f23a6e6160e01b808252906001600160a01b0387169063f23a6e619061212c9033906000908a908a908a908a90600401612c41565b6020604051808303816000875af115801561214b573d6000803e3d6000fd5b505050506040513d601f19601f8201168201806040525081019061216f9190612a85565b6001600160e01b031916141561218c565b6001600160a01b038516155b15611fa457604051631e4ec46b60e01b815260040160405180910390fd5b6001600160a01b038316600090815260208181526040808320858452909152812080548392906121db908490612960565b909155505060408051838152602081018390526000916001600160a01b0386169133917fc3d58168c5ae7397731d063d5bbf3d657854427343f4c083240f7aacaa2d0f62910160405180910390a4505050565b6001600160a01b038116811461224357600080fd5b50565b6000806040838503121561225957600080fd5b82356122648161222e565b946020939093013593505050565b6001600160e01b03198116811461224357600080fd5b60006020828403121561229a57600080fd5b81356122a581612272565b9392505050565b60005b838110156122c75781810151838201526020016122af565b8381111561207e5750506000910152565b600081518084526122f08160208601602086016122ac565b601f01601f19169290920160200192915050565b6020815260006122a560208301846122d8565b60006020828403121561232957600080fd5b5035919050565b60008083601f84011261234257600080fd5b50813567ffffffffffffffff81111561235a57600080fd5b6020830191508360208260051b850101111561237557600080fd5b9250929050565b60008083601f84011261238e57600080fd5b50813567ffffffffffffffff8111156123a657600080fd5b60208301915083602082850101111561237557600080fd5b60008060008060008060008060a0898b0312156123da57600080fd5b88356123e58161222e565b975060208901356123f58161222e565b9650604089013567ffffffffffffffff8082111561241257600080fd5b61241e8c838d01612330565b909850965060608b013591508082111561243757600080fd5b6124438c838d01612330565b909650945060808b013591508082111561245c57600080fd5b506124698b828c0161237c565b999c989b5096995094979396929594505050565b6000806000806040858703121561249357600080fd5b843567ffffffffffffffff808211156124ab57600080fd5b6124b788838901612330565b909650945060208701359150808211156124d057600080fd5b506124dd87828801612330565b95989497509550505050565b6020808252825182820181905260009190848201906040850190845b8181101561252157835183529284019291840191600101612505565b50909695505050505050565b60006020828403121561253f57600080fd5b81356122a58161222e565b6000806000806080858703121561256057600080fd5b843561256b8161222e565b93506020850135925060408501356125828161222e565b9396929550929360600135925050565b803580151581146125a257600080fd5b919050565b600080604083850312156125ba57600080fd5b82356125c58161222e565b91506125d360208401612592565b90509250929050565b600080602083850312156125ef57600080fd5b823567ffffffffffffffff81111561260657600080fd5b61261285828601612330565b90969095509350505050565b6000602080830181845280855180835260408601915060408160051b870101925083870160005b8281101561267357603f198886030184526126618583516122d8565b94509285019290850190600101612645565b5092979650505050505050565b803560ff811681146125a257600080fd5b60008060008060008060008060006101008a8c0312156126b057600080fd5b89356126bb8161222e565b985060208a01356126cb8161222e565b975060408a01356126db8161222e565b965060608a0135955060808a0135945060a08a01356126f98161222e565b935061270760c08b01612680565b925060e08a013567ffffffffffffffff81111561272357600080fd5b61272f8c828d0161237c565b915080935050809150509295985092959850929598565b60008060006060848603121561275b57600080fd5b83356127668161222e565b95602085013595506040909401359392505050565b6000806040838503121561278e57600080fd5b82356127998161222e565b915060208301356127a98161222e565b809150509250929050565b60008060008060008060a087890312156127cd57600080fd5b86356127d88161222e565b955060208701356127e88161222e565b94506040870135935060608701359250608087013567ffffffffffffffff81111561281257600080fd5b61281e89828a0161237c565b979a9699509497509295939492505050565b60008060008060008060a0878903121561284957600080fd5b86356128548161222e565b9550602087013594506040870135935060608701359250608087013567ffffffffffffffff81111561281257600080fd5b600080600080600080600060e0888a0312156128a057600080fd5b87356128ab8161222e565b965060208801356128bb8161222e565b95506128c960408901612592565b9450606088013593506128de60808901612680565b925060a0880135915060c0880135905092959891949750929550565b600181811c9082168061290e57607f821691505b60208210810361292e57634e487b7160e01b600052602260045260246000fd5b50919050565b634e487b7160e01b600052603260045260246000fd5b634e487b7160e01b600052601160045260246000fd5b6000828210156129725761297261294a565b500390565b81835260007f07ffffffffffffffffffffffffffffffffffffffffffffffffffffffffffffff8311156129a957600080fd5b8260051b8083602087013760009401602001938452509192915050565b6040815260006129da604083018688612977565b82810360208401526129ed818587612977565b979650505050505050565b81835281816020850137506000828201602090810191909152601f909101601f19169091010190565b60006001600160a01b03808b168352808a1660208401525060a06040830152612a4e60a08301888a612977565b8281036060840152612a61818789612977565b90508281036080840152612a768185876129f8565b9b9a5050505050505050505050565b600060208284031215612a9757600080fd5b81516122a581612272565b634e487b7160e01b600052604160045260246000fd5b600060208284031215612aca57600080fd5b5051919050565b60006001600160701b0383811690831681811015612af157612af161294a565b039392505050565b60006001600160701b03808316818516808303821115612b1b57612b1b61294a565b01949350505050565b6000808335601e19843603018112612b3b57600080fd5b83018035915067ffffffffffffffff821115612b5657600080fd5b60200191503681900382131561237557600080fd5b8183823760009101908152919050565b600060208284031215612b8d57600080fd5b815167ffffffffffffffff80821115612ba557600080fd5b818401915084601f830112612bb957600080fd5b815181811115612bcb57612bcb612aa2565b604051601f8201601f19908116603f01168101908382118183101715612bf357612bf3612aa2565b81604052828152876020848701011115612c0c57600080fd5b6129ed8360208301602088016122ac565b60008060408385031215612c3057600080fd5b505080516020909101519092909150565b60006001600160a01b03808916835280881660208401525085604083015284606083015260a06080830152612c7a60a0830184866129f8565b98975050505050505050565b60008219821115612c9957612c9961294a565b500190565b85815284602082015260a060408201526000612cbd60a08301866122d8565b90508360608301526001600160a01b0383166080830152969550505050505056fea26469706673582212203a824165514fd9a31664e036d23a4db1f3e9d2926eb8c378bb22b2f0c92df58364736f6c634300080d0033",
    "linkReferences": {}
  }
}