{
  "abi": [
    {
      "inputs": [
        {
          "internalType": "contract IPair",
          "name": "helios_",
          "type": "address"
        }
      ],
      "stateMutability": "nonpayable",
      "type": "constructor"
    },
    {
      "inputs": [],
      "name": "TransferFromFailed",
      "type": "error"
    },
    {
      "inputs": [
        {
          "internalType": "address",
          "name": "pair",
          "type": "address"
        },
        {
          "internalType": "address",
          "name": "to",
          "type": "address"
        },
        {
          "internalType": "uint256",
          "name": "id",
          "type": "uint256"
        },
        {
          "internalType": "uint256",
          "name": "amount",
          "type": "uint256"
        }
      ],
      "name": "migrate",
      "outputs": [
        {
          "internalType": "uint256",
          "name": "liq",
          "type": "uint256"
        }
      ],
      "stateMutability": "nonpayable",
      "type": "function"
    }
  ],
  "bytecode": {
    "object": "0x608060405234801561001057600080fd5b506040516105a93803806105a983398101604081905261002f91610054565b600080546001600160a01b0319166001600160a01b0392909216919091179055610084565b60006020828403121561006657600080fd5b81516001600160a01b038116811461007d57600080fd5b9392505050565b610516806100936000396000f3fe608060405234801561001057600080fd5b506004361061002b5760003560e01c8063a79721fe14610030575b600080fd5b61004361003e366004610417565b610055565b60405190815260200160405180910390f35b600080856001600160a01b0316630dfe16816040518163ffffffff1660e01b8152600401602060405180830381865afa158015610096573d6000803e3d6000fd5b505050506040513d601f19601f820116820180604052508101906100ba919061045d565b90506000866001600160a01b031663d21220a76040518163ffffffff1660e01b8152600401602060405180830381865afa1580156100fc573d6000803e3d6000fd5b505050506040513d601f19601f82011682018060405250810190610120919061045d565b90506101376001600160a01b038816338987610369565b6040517f89afcb4400000000000000000000000000000000000000000000000000000000815230600482015260009081906001600160a01b038a16906389afcb449060240160408051808303816000875af115801561019a573d6000803e3d6000fd5b505050506040513d601f19601f820116820180604052508101906101be9190610481565b60005460405163095ea7b360e01b81526001600160a01b0391821660048201526024810184905292945090925085169063095ea7b390604401602060405180830381865afa158015610214573d6000803e3d6000fd5b505050506040513d601f19601f8201168201806040525081019061023891906104a5565b5060005460405163095ea7b360e01b81526001600160a01b039182166004820152602481018390529084169063095ea7b390604401602060405180830381865afa15801561028a573d6000803e3d6000fd5b505050506040513d601f19601f820116820180604052508101906102ae91906104a5565b50600080546040517ff3b39b6c0000000000000000000000000000000000000000000000000000000081526001600160a01b038b81166004830152602482018b9052604482018690526064820185905260a0608483015260a482019390935291169063f3b39b6c9060c4016020604051808303816000875af1158015610338573d6000803e3d6000fd5b505050506040513d601f19601f8201168201806040525081019061035c91906104c7565b9998505050505050505050565b60006040517f23b872dd0000000000000000000000000000000000000000000000000000000081528460048201528360248201528260448201526020600060648360008a5af13d15601f3d11600160005114161716915050806103f8576040517f7939f42400000000000000000000000000000000000000000000000000000000815260040160405180910390fd5b5050505050565b6001600160a01b038116811461041457600080fd5b50565b6000806000806080858703121561042d57600080fd5b8435610438816103ff565b93506020850135610448816103ff565b93969395505050506040820135916060013590565b60006020828403121561046f57600080fd5b815161047a816103ff565b9392505050565b6000806040838503121561049457600080fd5b505080516020909101519092909150565b6000602082840312156104b757600080fd5b8151801515811461047a57600080fd5b6000602082840312156104d957600080fd5b505191905056fea26469706673582212200e0d5a1c4c978ac64c5bebc9e5b19c1ef4198fc235c932cd10bfed63cb5fcef264736f6c634300080d0033",
    "linkReferences": {}
  }
}