{
  "abi": [
    {
      "inputs": [
        {
          "internalType": "uint256",
          "name": "id",
          "type": "uint256"
        },
        {
          "internalType": "uint256",
          "name": "token0amount",
          "type": "uint256"
        },
        {
          "internalType": "uint256",
          "name": "token1amount",
          "type": "uint256"
        }
      ],
      "name": "addLiquidity",
      "outputs": [
        {
          "internalType": "uint256",
          "name": "liq",
          "type": "uint256"
        }
      ],
      "stateMutability": "nonpayable",
      "type": "function"
    },
    {
      "inputs": [
        {
          "internalType": "uint256",
          "name": "id",
          "type": "uint256"
        },
        {
          "internalType": "uint256",
          "name": "lp",
          "type": "uint256"
        }
      ],
      "name": "removeLiquidity",
      "outputs": [
        {
          "internalType": "uint256",
          "name": "amount0out",
          "type": "uint256"
        },
        {
          "internalType": "uint256",
          "name": "amount1out",
          "type": "uint256"
        }
      ],
      "stateMutability": "nonpayable",
      "type": "function"
    },
    {
      "inputs": [
        {
          "internalType": "uint256",
          "name": "id",
          "type": "uint256"
        },
        {
          "internalType": "contract ERC20",
          "name": "tokenIn",
          "type": "address"
        },
        {
          "internalType": "uint256",
          "name": "amountIn",
          "type": "uint256"
        }
      ],
      "name": "swap",
      "outputs": [
        {
          "internalType": "uint256",
          "name": "amountOut",
          "type": "uint256"
        }
      ],
      "stateMutability": "nonpayable",
      "type": "function"
    }
  ],
  "bytecode": {
    "object": "0x6080604052600160005534801561001557600080fd5b50610a16806100256000396000f3fe608060405234801561001057600080fd5b50600436106100415760003560e01c8063422f104314610046578063432643491461006c5780639d7de6b31461007f575b600080fd5b6100596100543660046107aa565b6100a7565b6040519081526020015b60405180910390f35b61005961007a3660046107fb565b6102c5565b61009261008d366004610833565b61046b565b60408051928352602083019190915201610063565b600080546001146100ec5760405162461bcd60e51b815260206004820152600a6024820152695245454e5452414e435960b01b60448201526064015b60405180910390fd5b6002600090815560405163172358f160e31b815260048101869052339063b91ac7889060240160c060405180830381865afa15801561012f573d6000803e3d6000fd5b505050506040513d601f19601f820116820180604052508101906101539190610894565b6060810151608082015160405163af51493760e01b8152600481018990529293506dffffffffffffffffffffffffffff91821692911690600090339063af51493790602401602060405180830381865afa1580156101b5573d6000803e3d6000fd5b505050506040513d601f19601f820116820180604052508101906101d99190610941565b905080600003610209576103e86101f86101f3888a610970565b61065c565b610202919061098f565b945061023e565b61023b83610217838a610970565b61022191906109a6565b8361022c848a610970565b61023691906109a6565b610742565b94505b846000036102b45760405162461bcd60e51b815260206004820152602960248201527f58594b737761707065723a20494e53554646494349454e545f4c49515549444960448201527f54595f4d494e544544000000000000000000000000000000000000000000000060648201526084016100e3565b505060016000555090949350505050565b600080546001146103055760405162461bcd60e51b815260206004820152600a6024820152695245454e5452414e435960b01b60448201526064016100e3565b6002600090815560405163172358f160e31b815260048101869052339063b91ac7889060240160c060405180830381865afa158015610348573d6000803e3d6000fd5b505050506040513d601f19601f8201168201806040525081019061036c9190610894565b6060810151608082015160a083015183519394506dffffffffffffffffffffffffffff92831693919092169160ff169073ffffffffffffffffffffffffffffffffffffffff908116908816036103cf576103c88684848461075a565b94506102b4565b836020015173ffffffffffffffffffffffffffffffffffffffff168773ffffffffffffffffffffffffffffffffffffffff161461044e5760405162461bcd60e51b815260206004820152601f60248201527f58594b737761707065723a20494e56414c49445f494e5055545f544f4b454e0060448201526064016100e3565b61045a8683858461075a565b600160005598975050505050505050565b6000806000546001146104ad5760405162461bcd60e51b815260206004820152600a6024820152695245454e5452414e435960b01b60448201526064016100e3565b6002600090815560405163172358f160e31b815260048101869052339063b91ac7889060240160c060405180830381865afa1580156104f0573d6000803e3d6000fd5b505050506040513d601f19601f820116820180604052508101906105149190610894565b6060810151608082015160405163af51493760e01b8152600481018990529293506dffffffffffffffffffffffffffff91821692911690600090339063af51493790602401602060405180830381865afa158015610576573d6000803e3d6000fd5b505050506040513d601f19601f8201168201806040525081019061059a9190610941565b9050806105a78489610970565b6105b191906109a6565b9550806105be8389610970565b6105c891906109a6565b945085158015906105d857508415155b61064a5760405162461bcd60e51b815260206004820152602960248201527f58594b737761707065723a20494e53554646494349454e545f4c49515549444960448201527f54595f4255524e4544000000000000000000000000000000000000000000000060648201526084016100e3565b50506001600055509194909350915050565b60018170010000000000000000000000000000000081106106825760409190911b9060801c5b68010000000000000000811061069d5760209190911b9060401c5b64010000000081106106b45760109190911b9060201c5b6201000081106106c95760089190911b9060101c5b61010081106106dd5760049190911b9060081c5b601081106106f05760029190911b9060041c5b600881106106ff578160011b91505b5080820401600190811c80830401811c80830401811c80830401811c80830401811c80830401811c80830401901c8082048181101561073c578091505b50919050565b60008183106107515781610753565b825b9392505050565b6000806107698361271061098f565b6107739087610970565b90508061078286612710610970565b61078c91906109c8565b6107968583610970565b6107a091906109a6565b9695505050505050565b6000806000606084860312156107bf57600080fd5b505081359360208301359350604090920135919050565b73ffffffffffffffffffffffffffffffffffffffff811681146107f857600080fd5b50565b60008060006060848603121561081057600080fd5b833592506020840135610822816107d6565b929592945050506040919091013590565b6000806040838503121561084657600080fd5b50508035926020909101359150565b8051610860816107d6565b919050565b80516dffffffffffffffffffffffffffff8116811461086057600080fd5b805160ff8116811461086057600080fd5b600060c082840312156108a657600080fd5b60405160c0810181811067ffffffffffffffff821117156108d757634e487b7160e01b600052604160045260246000fd5b6040526108e383610855565b81526108f160208401610855565b602082015261090260408401610855565b604082015261091360608401610865565b606082015261092460808401610865565b608082015261093560a08401610883565b60a08201529392505050565b60006020828403121561095357600080fd5b5051919050565b634e487b7160e01b600052601160045260246000fd5b600081600019048311821515161561098a5761098a61095a565b500290565b6000828210156109a1576109a161095a565b500390565b6000826109c357634e487b7160e01b600052601260045260246000fd5b500490565b600082198211156109db576109db61095a565b50019056fea2646970667358221220d18c9df8dd4659875bbbb62d01bd2b217cebc904b00e2a385989c866b4a792a164736f6c634300080d0033",
    "linkReferences": {}
  }
}