{
  "abi": [
    {
      "inputs": [],
      "name": "InsuffLiquidityBurn",
      "type": "error"
    },
    {
      "inputs": [],
      "name": "InsuffLiquidityMint",
      "type": "error"
    },
    {
      "inputs": [],
      "name": "InvalidInputToken",
      "type": "error"
    },
    {
      "inputs": [],
      "name": "Reentrancy",
      "type": "error"
    },
    {
      "inputs": [
        {
          "internalType": "uint256",
          "name": "id",
          "type": "uint256"
        },
        {
          "internalType": "uint256",
          "name": "token0amount",
          "type": "uint256"
        },
        {
          "internalType": "uint256",
          "name": "token1amount",
          "type": "uint256"
        }
      ],
      "name": "addLiquidity",
      "outputs": [
        {
          "internalType": "uint256",
          "name": "liq",
          "type": "uint256"
        }
      ],
      "stateMutability": "nonpayable",
      "type": "function"
    },
    {
      "inputs": [
        {
          "internalType": "uint256",
          "name": "id",
          "type": "uint256"
        },
        {
          "internalType": "uint256",
          "name": "lp",
          "type": "uint256"
        }
      ],
      "name": "removeLiquidity",
      "outputs": [
        {
          "internalType": "uint256",
          "name": "amount0out",
          "type": "uint256"
        },
        {
          "internalType": "uint256",
          "name": "amount1out",
          "type": "uint256"
        }
      ],
      "stateMutability": "nonpayable",
      "type": "function"
    },
    {
      "inputs": [
        {
          "internalType": "uint256",
          "name": "id",
          "type": "uint256"
        },
        {
          "internalType": "address",
          "name": "tokenIn",
          "type": "address"
        },
        {
          "internalType": "uint256",
          "name": "amountIn",
          "type": "uint256"
        }
      ],
      "name": "swap",
      "outputs": [
        {
          "internalType": "uint256",
          "name": "amountOut",
          "type": "uint256"
        }
      ],
      "stateMutability": "nonpayable",
      "type": "function"
    }
  ],
  "bytecode": {
    "object": "0x6080604052600160005534801561001557600080fd5b5061092d806100256000396000f3fe608060405234801561001057600080fd5b50600436106100415760003560e01c8063422f104314610046578063432643491461006c5780639d7de6b31461007f575b600080fd5b6100596100543660046106c1565b6100a7565b6040519081526020015b60405180910390f35b61005961007a366004610712565b610268565b61009261008d36600461074a565b6103dc565b60408051928352602083019190915201610063565b600080546001146100cb5760405163558a1e0360e11b815260040160405180910390fd5b6002600090815560405163172358f160e31b815260048101869052339063b91ac7889060240160c060405180830381865afa15801561010e573d6000803e3d6000fd5b505050506040513d601f19601f8201168201806040525081019061013291906107ab565b6060810151608082015160405163af51493760e01b8152600481018990529293506dffffffffffffffffffffffffffff91821692911690600090339063af51493790602401602060405180830381865afa158015610194573d6000803e3d6000fd5b505050506040513d601f19601f820116820180604052508101906101b89190610858565b9050806000036101e8576103e86101d76101d2888a610887565b610573565b6101e191906108a6565b945061021d565b61021a836101f6838a610887565b61020091906108bd565b8361020b848a610887565b61021591906108bd565b610659565b94505b84600003610257576040517f5a3bac2600000000000000000000000000000000000000000000000000000000815260040160405180910390fd5b505060016000555090949350505050565b6000805460011461028c5760405163558a1e0360e11b815260040160405180910390fd5b6002600090815560405163172358f160e31b815260048101869052339063b91ac7889060240160c060405180830381865afa1580156102cf573d6000803e3d6000fd5b505050506040513d601f19601f820116820180604052508101906102f391906107ab565b6060810151608082015160a083015183519394506dffffffffffffffffffffffffffff92831693919092169160ff169073ffffffffffffffffffffffffffffffffffffffff908116908816036103565761034f86848484610671565b9450610257565b836020015173ffffffffffffffffffffffffffffffffffffffff168773ffffffffffffffffffffffffffffffffffffffff16146103bf576040517f2df9739b00000000000000000000000000000000000000000000000000000000815260040160405180910390fd5b6103cb86838584610671565b600160005598975050505050505050565b6000806000546001146104025760405163558a1e0360e11b815260040160405180910390fd5b6002600090815560405163172358f160e31b815260048101869052339063b91ac7889060240160c060405180830381865afa158015610445573d6000803e3d6000fd5b505050506040513d601f19601f8201168201806040525081019061046991906107ab565b6060810151608082015160405163af51493760e01b8152600481018990529293506dffffffffffffffffffffffffffff91821692911690600090339063af51493790602401602060405180830381865afa1580156104cb573d6000803e3d6000fd5b505050506040513d601f19601f820116820180604052508101906104ef9190610858565b9050806104fc8489610887565b61050691906108bd565b9550806105138389610887565b61051d91906108bd565b945085158061052a575084155b15610561576040517fdcff71fe00000000000000000000000000000000000000000000000000000000815260040160405180910390fd5b50506001600055509194909350915050565b60018170010000000000000000000000000000000081106105995760409190911b9060801c5b6801000000000000000081106105b45760209190911b9060401c5b64010000000081106105cb5760109190911b9060201c5b6201000081106105e05760089190911b9060101c5b61010081106105f45760049190911b9060081c5b601081106106075760029190911b9060041c5b60088110610616578160011b91505b5080820401600190811c80830401811c80830401811c80830401811c80830401811c80830401811c80830401901c80820481811015610653578091505b50919050565b6000818310610668578161066a565b825b9392505050565b600080610680836127106108a6565b61068a9087610887565b90508061069986612710610887565b6106a391906108df565b6106ad8583610887565b6106b791906108bd565b9695505050505050565b6000806000606084860312156106d657600080fd5b505081359360208301359350604090920135919050565b73ffffffffffffffffffffffffffffffffffffffff8116811461070f57600080fd5b50565b60008060006060848603121561072757600080fd5b833592506020840135610739816106ed565b929592945050506040919091013590565b6000806040838503121561075d57600080fd5b50508035926020909101359150565b8051610777816106ed565b919050565b80516dffffffffffffffffffffffffffff8116811461077757600080fd5b805160ff8116811461077757600080fd5b600060c082840312156107bd57600080fd5b60405160c0810181811067ffffffffffffffff821117156107ee57634e487b7160e01b600052604160045260246000fd5b6040526107fa8361076c565b81526108086020840161076c565b60208201526108196040840161076c565b604082015261082a6060840161077c565b606082015261083b6080840161077c565b608082015261084c60a0840161079a565b60a08201529392505050565b60006020828403121561086a57600080fd5b5051919050565b634e487b7160e01b600052601160045260246000fd5b60008160001904831182151516156108a1576108a1610871565b500290565b6000828210156108b8576108b8610871565b500390565b6000826108da57634e487b7160e01b600052601260045260246000fd5b500490565b600082198211156108f2576108f2610871565b50019056fea26469706673582212202be79643ced69b77aef99cf255fa2d29d21b9cf69d60cda90dc82b54ec08022264736f6c634300080d0033",
    "linkReferences": {}
  }
}